{
  "contractName": "Bill",
  "abi": [
    {
      "inputs": [
        {
          "internalType": "string",
          "name": "_documents",
          "type": "string"
        },
        {
          "internalType": "uint256",
          "name": "_billAmount",
          "type": "uint256"
        },
        {
          "internalType": "address",
          "name": "_hospitalWalletAddress",
          "type": "address"
        },
        {
          "internalType": "string",
          "name": "_policyId",
          "type": "string"
        },
        {
          "internalType": "address",
          "name": "_userWalletAddress",
          "type": "address"
        }
      ],
      "stateMutability": "nonpayable",
      "type": "constructor"
    },
    {
      "inputs": [],
      "name": "Bill_WithdrawFailed",
      "type": "error"
    },
    {
      "inputs": [],
      "name": "Bill__NotRequestedByHospital",
      "type": "error"
    },
    {
      "inputs": [],
      "name": "billAmount",
      "outputs": [
        {
          "internalType": "uint256",
          "name": "",
          "type": "uint256"
        }
      ],
      "stateMutability": "view",
      "type": "function"
    },
    {
      "inputs": [],
      "name": "documents",
      "outputs": [
        {
          "internalType": "string",
          "name": "",
          "type": "string"
        }
      ],
      "stateMutability": "view",
      "type": "function"
    },
    {
      "inputs": [],
      "name": "hospitalWalletAddress",
      "outputs": [
        {
          "internalType": "address",
          "name": "",
          "type": "address"
        }
      ],
      "stateMutability": "view",
      "type": "function"
    },
    {
      "inputs": [],
      "name": "policyId",
      "outputs": [
        {
          "internalType": "string",
          "name": "",
          "type": "string"
        }
      ],
      "stateMutability": "view",
      "type": "function"
    },
    {
      "inputs": [],
      "name": "userWallerAddress",
      "outputs": [
        {
          "internalType": "address",
          "name": "",
          "type": "address"
        }
      ],
      "stateMutability": "view",
      "type": "function"
    },
    {
      "inputs": [
        {
          "internalType": "address",
          "name": "hospAddress",
          "type": "address"
        }
      ],
      "name": "withdraw",
      "outputs": [],
      "stateMutability": "nonpayable",
      "type": "function"
    }
  ],
  "bytecode": "0x60806040523480156200001157600080fd5b5060405162000d7338038062000d73833981810160405281019062000037919062000322565b846000908162000048919062000629565b508360018190555082600260006101000a81548173ffffffffffffffffffffffffffffffffffffffff021916908373ffffffffffffffffffffffffffffffffffffffff1602179055508160039081620000a2919062000629565b5080600460006101000a81548173ffffffffffffffffffffffffffffffffffffffff021916908373ffffffffffffffffffffffffffffffffffffffff160217905550505050505062000710565b6000604051905090565b600080fd5b600080fd5b600080fd5b600080fd5b6000601f19601f8301169050919050565b7f4e487b7100000000000000000000000000000000000000000000000000000000600052604160045260246000fd5b62000158826200010d565b810181811067ffffffffffffffff821117156200017a57620001796200011e565b5b80604052505050565b60006200018f620000ef565b90506200019d82826200014d565b919050565b600067ffffffffffffffff821115620001c057620001bf6200011e565b5b620001cb826200010d565b9050602081019050919050565b60005b83811015620001f8578082015181840152602081019050620001db565b60008484015250505050565b60006200021b6200021584620001a2565b62000183565b9050828152602081018484840111156200023a576200023962000108565b5b62000247848285620001d8565b509392505050565b600082601f83011262000267576200026662000103565b5b81516200027984826020860162000204565b91505092915050565b6000819050919050565b620002978162000282565b8114620002a357600080fd5b50565b600081519050620002b7816200028c565b92915050565b600073ffffffffffffffffffffffffffffffffffffffff82169050919050565b6000620002ea82620002bd565b9050919050565b620002fc81620002dd565b81146200030857600080fd5b50565b6000815190506200031c81620002f1565b92915050565b600080600080600060a08688031215620003415762000340620000f9565b5b600086015167ffffffffffffffff811115620003625762000361620000fe565b5b62000370888289016200024f565b95505060206200038388828901620002a6565b945050604062000396888289016200030b565b935050606086015167ffffffffffffffff811115620003ba57620003b9620000fe565b5b620003c8888289016200024f565b9250506080620003db888289016200030b565b9150509295509295909350565b600081519050919050565b7f4e487b7100000000000000000000000000000000000000000000000000000000600052602260045260246000fd5b600060028204905060018216806200043b57607f821691505b602082108103620004515762000450620003f3565b5b50919050565b60008190508160005260206000209050919050565b60006020601f8301049050919050565b600082821b905092915050565b600060088302620004bb7fffffffffffffffffffffffffffffffffffffffffffffffffffffffffffffffff826200047c565b620004c786836200047c565b95508019841693508086168417925050509392505050565b6000819050919050565b60006200050a62000504620004fe8462000282565b620004df565b62000282565b9050919050565b6000819050919050565b6200052683620004e9565b6200053e620005358262000511565b84845462000489565b825550505050565b600090565b6200055562000546565b620005628184846200051b565b505050565b5b818110156200058a576200057e6000826200054b565b60018101905062000568565b5050565b601f821115620005d957620005a38162000457565b620005ae846200046c565b81016020851015620005be578190505b620005d6620005cd856200046c565b83018262000567565b50505b505050565b600082821c905092915050565b6000620005fe60001984600802620005de565b1980831691505092915050565b6000620006198383620005eb565b9150826002028217905092915050565b6200063482620003e8565b67ffffffffffffffff81111562000650576200064f6200011e565b5b6200065c825462000422565b620006698282856200058e565b600060209050601f831160018114620006a157600084156200068c578287015190505b6200069885826200060b565b86555062000708565b601f198416620006b18662000457565b60005b82811015620006db57848901518255600182019150602085019450602081019050620006b4565b86831015620006fb5784890151620006f7601f891682620005eb565b8355505b6001600288020188555050505b505050505050565b61065380620007206000396000f3fe608060405234801561001057600080fd5b50600436106100625760003560e01c80633a1806b41461006757806351cff8d9146100855780635f342441146100a1578063d7a5d985146100bf578063ee89ef3a146100dd578063f239da35146100fb575b600080fd5b61006f610119565b60405161007c9190610467565b60405180910390f35b61009f600480360381019061009a91906104ec565b6101a7565b005b6100a96102f7565b6040516100b69190610528565b60405180910390f35b6100c761031d565b6040516100d4919061055c565b60405180910390f35b6100e5610323565b6040516100f29190610467565b60405180910390f35b6101036103b1565b6040516101109190610528565b60405180910390f35b60008054610126906105a6565b80601f0160208091040260200160405190810160405280929190818152602001828054610152906105a6565b801561019f5780601f106101745761010080835404028352916020019161019f565b820191906000526020600020905b81548152906001019060200180831161018257829003601f168201915b505050505081565b600260009054906101000a900473ffffffffffffffffffffffffffffffffffffffff1673ffffffffffffffffffffffffffffffffffffffff168173ffffffffffffffffffffffffffffffffffffffff161461022e576040517fe0dbd8ee00000000000000000000000000000000000000000000000000000000815260040160405180910390fd5b6000600260009054906101000a900473ffffffffffffffffffffffffffffffffffffffff1673ffffffffffffffffffffffffffffffffffffffff164760405161027690610608565b60006040518083038185875af1925050503d80600081146102b3576040519150601f19603f3d011682016040523d82523d6000602084013e6102b8565b606091505b50509050806102f3576040517f1215784c00000000000000000000000000000000000000000000000000000000815260040160405180910390fd5b5050565b600260009054906101000a900473ffffffffffffffffffffffffffffffffffffffff1681565b60015481565b60038054610330906105a6565b80601f016020809104026020016040519081016040528092919081815260200182805461035c906105a6565b80156103a95780601f1061037e576101008083540402835291602001916103a9565b820191906000526020600020905b81548152906001019060200180831161038c57829003601f168201915b505050505081565b600460009054906101000a900473ffffffffffffffffffffffffffffffffffffffff1681565b600081519050919050565b600082825260208201905092915050565b60005b838110156104115780820151818401526020810190506103f6565b60008484015250505050565b6000601f19601f8301169050919050565b6000610439826103d7565b61044381856103e2565b93506104538185602086016103f3565b61045c8161041d565b840191505092915050565b60006020820190508181036000830152610481818461042e565b905092915050565b600080fd5b600073ffffffffffffffffffffffffffffffffffffffff82169050919050565b60006104b98261048e565b9050919050565b6104c9816104ae565b81146104d457600080fd5b50565b6000813590506104e6816104c0565b92915050565b60006020828403121561050257610501610489565b5b6000610510848285016104d7565b91505092915050565b610522816104ae565b82525050565b600060208201905061053d6000830184610519565b92915050565b6000819050919050565b61055681610543565b82525050565b6000602082019050610571600083018461054d565b92915050565b7f4e487b7100000000000000000000000000000000000000000000000000000000600052602260045260246000fd5b600060028204905060018216806105be57607f821691505b6020821081036105d1576105d0610577565b5b50919050565b600081905092915050565b50565b60006105f26000836105d7565b91506105fd826105e2565b600082019050919050565b6000610613826105e5565b915081905091905056fea26469706673582212200a89b68e67bd60b4e28064a12d9e60b0a8869073b96d7287dccb55d975a8e17264736f6c63430008110033",
  "immutableReferences": {},
  "source": "//SPDX-License-Identifier: MIT\npragma solidity ^0.8.9;\n\nerror Bill__NotRequestedByHospital();\nerror Bill_WithdrawFailed();\n\ncontract Bill {\n    string public documents;\n    uint256 public billAmount;\n    address public hospitalWalletAddress;\n    string public policyId;\n    address public userWallerAddress;\n\n    constructor(\n        string memory _documents,\n        uint256 _billAmount,\n        address _hospitalWalletAddress,\n        string memory _policyId,\n        address _userWalletAddress\n    ) {\n        documents = _documents;\n        billAmount = _billAmount;\n        hospitalWalletAddress = _hospitalWalletAddress;\n        policyId = _policyId;\n        userWallerAddress = _userWalletAddress;\n    }\n\n    function withdraw(address hospAddress) public {\n        if (hospAddress != hospitalWalletAddress) {\n            revert Bill__NotRequestedByHospital();\n        }\n        (\n            bool callSuccess, /*bytes memory dataReturned*/\n\n        ) = payable(hospitalWalletAddress).call{value: address(this).balance}(\n                \"\"\n            );\n\n        if (!callSuccess) {\n            revert Bill_WithdrawFailed();\n        }\n    }\n}\n",
  "sourcePath": "/Users/rakshith/projects/healocode/contracts/Bill.sol",
  "compiler": {
    "name": "solc",
    "version": "0.8.17+commit.8df45f5f.Emscripten.clang"
  },
  "schemaVersion": "3.4.11",
  "updatedAt": "2023-02-04T17:25:41.045Z",
  "devdoc": {
    "kind": "dev",
    "methods": {},
    "version": 1
  },
  "userdoc": {
    "kind": "user",
    "methods": {},
    "version": 1
  }
}