{
  "contractName": "Company",
  "abi": [
    {
      "inputs": [
        {
          "internalType": "address",
          "name": "_CompanyWalletAddress",
          "type": "address"
        },
        {
          "internalType": "string",
          "name": "_policyListString",
          "type": "string"
        }
      ],
      "stateMutability": "nonpayable",
      "type": "constructor"
    },
    {
      "inputs": [],
      "name": "Company_InsuffiecientRequest",
      "type": "error"
    },
    {
      "inputs": [],
      "name": "Company_SendToBillFailed",
      "type": "error"
    },
    {
      "inputs": [
        {
          "internalType": "address",
          "name": "",
          "type": "address"
        }
      ],
      "name": "holderList",
      "outputs": [
        {
          "internalType": "address",
          "name": "userAddress",
          "type": "address"
        },
        {
          "internalType": "string",
          "name": "policyId",
          "type": "string"
        },
        {
          "internalType": "string",
          "name": "userPolicyId",
          "type": "string"
        },
        {
          "internalType": "uint256",
          "name": "totalAmount",
          "type": "uint256"
        },
        {
          "internalType": "uint256",
          "name": "claimed",
          "type": "uint256"
        }
      ],
      "stateMutability": "view",
      "type": "function"
    },
    {
      "inputs": [],
      "name": "policyListString",
      "outputs": [
        {
          "internalType": "string",
          "name": "",
          "type": "string"
        }
      ],
      "stateMutability": "view",
      "type": "function"
    },
    {
      "inputs": [
        {
          "internalType": "uint256",
          "name": "",
          "type": "uint256"
        }
      ],
      "name": "requestsArrived",
      "outputs": [
        {
          "internalType": "address",
          "name": "",
          "type": "address"
        }
      ],
      "stateMutability": "view",
      "type": "function"
    },
    {
      "inputs": [
        {
          "internalType": "address",
          "name": "userWalletAddress",
          "type": "address"
        },
        {
          "internalType": "address",
          "name": "userContractAddress",
          "type": "address"
        },
        {
          "internalType": "string",
          "name": "policyId",
          "type": "string"
        },
        {
          "internalType": "string",
          "name": "userPolicyId",
          "type": "string"
        },
        {
          "internalType": "uint256",
          "name": "totalAmount",
          "type": "uint256"
        },
        {
          "internalType": "uint256",
          "name": "claimed",
          "type": "uint256"
        }
      ],
      "name": "addPolicyForUser",
      "outputs": [],
      "stateMutability": "nonpayable",
      "type": "function"
    },
    {
      "inputs": [
        {
          "internalType": "address",
          "name": "_userWalletAddress",
          "type": "address"
        },
        {
          "internalType": "address",
          "name": "_billAddress",
          "type": "address"
        },
        {
          "internalType": "uint256",
          "name": "amount",
          "type": "uint256"
        }
      ],
      "name": "requestedPayment",
      "outputs": [],
      "stateMutability": "nonpayable",
      "type": "function"
    },
    {
      "inputs": [
        {
          "internalType": "address",
          "name": "_billAddress",
          "type": "address"
        },
        {
          "internalType": "uint256",
          "name": "amount",
          "type": "uint256"
        }
      ],
      "name": "companyPayBill",
      "outputs": [],
      "stateMutability": "nonpayable",
      "type": "function"
    }
  ],
  "bytecode": "0x60806040523480156200001157600080fd5b50604051620018dd380380620018dd83398181016040528101906200003791906200028a565b80600090816200004891906200053b565b5081600160006101000a81548173ffffffffffffffffffffffffffffffffffffffff021916908373ffffffffffffffffffffffffffffffffffffffff160217905550505062000622565b6000604051905090565b600080fd5b600080fd5b600073ffffffffffffffffffffffffffffffffffffffff82169050919050565b6000620000d382620000a6565b9050919050565b620000e581620000c6565b8114620000f157600080fd5b50565b6000815190506200010581620000da565b92915050565b600080fd5b600080fd5b6000601f19601f8301169050919050565b7f4e487b7100000000000000000000000000000000000000000000000000000000600052604160045260246000fd5b620001608262000115565b810181811067ffffffffffffffff8211171562000182576200018162000126565b5b80604052505050565b60006200019762000092565b9050620001a5828262000155565b919050565b600067ffffffffffffffff821115620001c857620001c762000126565b5b620001d38262000115565b9050602081019050919050565b60005b8381101562000200578082015181840152602081019050620001e3565b60008484015250505050565b6000620002236200021d84620001aa565b6200018b565b90508281526020810184848401111562000242576200024162000110565b5b6200024f848285620001e0565b509392505050565b600082601f8301126200026f576200026e6200010b565b5b8151620002818482602086016200020c565b91505092915050565b60008060408385031215620002a457620002a36200009c565b5b6000620002b485828601620000f4565b925050602083015167ffffffffffffffff811115620002d857620002d7620000a1565b5b620002e68582860162000257565b9150509250929050565b600081519050919050565b7f4e487b7100000000000000000000000000000000000000000000000000000000600052602260045260246000fd5b600060028204905060018216806200034357607f821691505b602082108103620003595762000358620002fb565b5b50919050565b60008190508160005260206000209050919050565b60006020601f8301049050919050565b600082821b905092915050565b600060088302620003c37fffffffffffffffffffffffffffffffffffffffffffffffffffffffffffffffff8262000384565b620003cf868362000384565b95508019841693508086168417925050509392505050565b6000819050919050565b6000819050919050565b60006200041c620004166200041084620003e7565b620003f1565b620003e7565b9050919050565b6000819050919050565b6200043883620003fb565b62000450620004478262000423565b84845462000391565b825550505050565b600090565b6200046762000458565b620004748184846200042d565b505050565b5b818110156200049c57620004906000826200045d565b6001810190506200047a565b5050565b601f821115620004eb57620004b5816200035f565b620004c08462000374565b81016020851015620004d0578190505b620004e8620004df8562000374565b83018262000479565b50505b505050565b600082821c905092915050565b60006200051060001984600802620004f0565b1980831691505092915050565b60006200052b8383620004fd565b9150826002028217905092915050565b6200054682620002f0565b67ffffffffffffffff81111562000562576200056162000126565b5b6200056e82546200032a565b6200057b828285620004a0565b600060209050601f831160018114620005b357600084156200059e578287015190505b620005aa85826200051d565b8655506200061a565b601f198416620005c3866200035f565b60005b82811015620005ed57848901518255600182019150602085019450602081019050620005c6565b868310156200060d578489015162000609601f891682620004fd565b8355505b6001600288020188555050505b505050505050565b6112ab80620006326000396000f3fe608060405234801561001057600080fd5b50600436106100625760003560e01c806305a955af146100675780631e6c45561461009b578063328c9754146100cb57806338c32c4b146100e95780636dd86d04146101055780636df3b9d414610121575b600080fd5b610081600480360381019061007c91906109c6565b61013d565b604051610092959493929190610aab565b60405180910390f35b6100b560048036038101906100b09190610b38565b6102a3565b6040516100c29190610b65565b60405180910390f35b6100d36102e2565b6040516100e09190610b80565b60405180910390f35b61010360048036038101906100fe9190610cd7565b610370565b005b61011f600480360381019061011a9190610d9c565b610561565b005b61013b60048036038101906101369190610def565b610805565b005b60026020528060005260406000206000915090508060000160009054906101000a900473ffffffffffffffffffffffffffffffffffffffff169080600101805461018690610e5e565b80601f01602080910402602001604051908101604052809291908181526020018280546101b290610e5e565b80156101ff5780601f106101d4576101008083540402835291602001916101ff565b820191906000526020600020905b8154815290600101906020018083116101e257829003601f168201915b50505050509080600201805461021490610e5e565b80601f016020809104026020016040519081016040528092919081815260200182805461024090610e5e565b801561028d5780601f106102625761010080835404028352916020019161028d565b820191906000526020600020905b81548152906001019060200180831161027057829003601f168201915b5050505050908060030154908060040154905085565b600381815481106102b357600080fd5b906000526020600020016000915054906101000a900473ffffffffffffffffffffffffffffffffffffffff1681565b600080546102ef90610e5e565b80601f016020809104026020016040519081016040528092919081815260200182805461031b90610e5e565b80156103685780601f1061033d57610100808354040283529160200191610368565b820191906000526020600020905b81548152906001019060200180831161034b57829003601f168201915b505050505081565b60008590508073ffffffffffffffffffffffffffffffffffffffff1663e8314f27868686866040518563ffffffff1660e01b81526004016103b49493929190610e8f565b600060405180830381600087803b1580156103ce57600080fd5b505af11580156103e2573d6000803e3d6000fd5b505050506040518060c001604052808773ffffffffffffffffffffffffffffffffffffffff168152602001868152602001858152602001848152602001838152602001600067ffffffffffffffff8111156104405761043f610bac565b5b60405190808252806020026020018201604052801561046e5781602001602082028036833780820191505090505b50815250600260008973ffffffffffffffffffffffffffffffffffffffff1673ffffffffffffffffffffffffffffffffffffffff16815260200190815260200160002060008201518160000160006101000a81548173ffffffffffffffffffffffffffffffffffffffff021916908373ffffffffffffffffffffffffffffffffffffffff160217905550602082015181600101908161050d919061108e565b506040820151816002019081610523919061108e565b50606082015181600301556080820151816004015560a08201518160050190805190602001906105549291906108ad565b5090505050505050505050565b3373ffffffffffffffffffffffffffffffffffffffff16600260008573ffffffffffffffffffffffffffffffffffffffff1673ffffffffffffffffffffffffffffffffffffffff16815260200190815260200160002060000160009054906101000a900473ffffffffffffffffffffffffffffffffffffffff1673ffffffffffffffffffffffffffffffffffffffff1614610631576040517f08c379a0000000000000000000000000000000000000000000000000000000008152600401610628906111ac565b60405180910390fd5b80600260008573ffffffffffffffffffffffffffffffffffffffff1673ffffffffffffffffffffffffffffffffffffffff16815260200190815260200160002060040154600260008673ffffffffffffffffffffffffffffffffffffffff1673ffffffffffffffffffffffffffffffffffffffff168152602001908152602001600020600301546106c291906111fb565b10156106fa576040517f8e1cbe8800000000000000000000000000000000000000000000000000000000815260040160405180910390fd5b6003829080600181540180825580915050600190039060005260206000200160009091909190916101000a81548173ffffffffffffffffffffffffffffffffffffffff021916908373ffffffffffffffffffffffffffffffffffffffff160217905550600260008473ffffffffffffffffffffffffffffffffffffffff1673ffffffffffffffffffffffffffffffffffffffff168152602001908152602001600020600501829080600181540180825580915050600190039060005260206000200160009091909190916101000a81548173ffffffffffffffffffffffffffffffffffffffff021916908373ffffffffffffffffffffffffffffffffffffffff160217905550505050565b60008273ffffffffffffffffffffffffffffffffffffffff168260405161082b90611260565b60006040518083038185875af1925050503d8060008114610868576040519150601f19603f3d011682016040523d82523d6000602084013e61086d565b606091505b50509050806108a8576040517f04cd263400000000000000000000000000000000000000000000000000000000815260040160405180910390fd5b505050565b828054828255906000526020600020908101928215610926579160200282015b828111156109255782518260006101000a81548173ffffffffffffffffffffffffffffffffffffffff021916908373ffffffffffffffffffffffffffffffffffffffff160217905550916020019190600101906108cd565b5b5090506109339190610937565b5090565b5b80821115610950576000816000905550600101610938565b5090565b6000604051905090565b600080fd5b600080fd5b600073ffffffffffffffffffffffffffffffffffffffff82169050919050565b600061099382610968565b9050919050565b6109a381610988565b81146109ae57600080fd5b50565b6000813590506109c08161099a565b92915050565b6000602082840312156109dc576109db61095e565b5b60006109ea848285016109b1565b91505092915050565b6109fc81610988565b82525050565b600081519050919050565b600082825260208201905092915050565b60005b83811015610a3c578082015181840152602081019050610a21565b60008484015250505050565b6000601f19601f8301169050919050565b6000610a6482610a02565b610a6e8185610a0d565b9350610a7e818560208601610a1e565b610a8781610a48565b840191505092915050565b6000819050919050565b610aa581610a92565b82525050565b600060a082019050610ac060008301886109f3565b8181036020830152610ad28187610a59565b90508181036040830152610ae68186610a59565b9050610af56060830185610a9c565b610b026080830184610a9c565b9695505050505050565b610b1581610a92565b8114610b2057600080fd5b50565b600081359050610b3281610b0c565b92915050565b600060208284031215610b4e57610b4d61095e565b5b6000610b5c84828501610b23565b91505092915050565b6000602082019050610b7a60008301846109f3565b92915050565b60006020820190508181036000830152610b9a8184610a59565b905092915050565b600080fd5b600080fd5b7f4e487b7100000000000000000000000000000000000000000000000000000000600052604160045260246000fd5b610be482610a48565b810181811067ffffffffffffffff82111715610c0357610c02610bac565b5b80604052505050565b6000610c16610954565b9050610c228282610bdb565b919050565b600067ffffffffffffffff821115610c4257610c41610bac565b5b610c4b82610a48565b9050602081019050919050565b82818337600083830152505050565b6000610c7a610c7584610c27565b610c0c565b905082815260208101848484011115610c9657610c95610ba7565b5b610ca1848285610c58565b509392505050565b600082601f830112610cbe57610cbd610ba2565b5b8135610cce848260208601610c67565b91505092915050565b60008060008060008060c08789031215610cf457610cf361095e565b5b6000610d0289828a016109b1565b9650506020610d1389828a016109b1565b955050604087013567ffffffffffffffff811115610d3457610d33610963565b5b610d4089828a01610ca9565b945050606087013567ffffffffffffffff811115610d6157610d60610963565b5b610d6d89828a01610ca9565b9350506080610d7e89828a01610b23565b92505060a0610d8f89828a01610b23565b9150509295509295509295565b600080600060608486031215610db557610db461095e565b5b6000610dc3868287016109b1565b9350506020610dd4868287016109b1565b9250506040610de586828701610b23565b9150509250925092565b60008060408385031215610e0657610e0561095e565b5b6000610e14858286016109b1565b9250506020610e2585828601610b23565b9150509250929050565b7f4e487b7100000000000000000000000000000000000000000000000000000000600052602260045260246000fd5b60006002820490506001821680610e7657607f821691505b602082108103610e8957610e88610e2f565b5b50919050565b60006080820190508181036000830152610ea98187610a59565b90508181036020830152610ebd8186610a59565b9050610ecc6040830185610a9c565b610ed96060830184610a9c565b95945050505050565b60008190508160005260206000209050919050565b60006020601f8301049050919050565b600082821b905092915050565b600060088302610f447fffffffffffffffffffffffffffffffffffffffffffffffffffffffffffffffff82610f07565b610f4e8683610f07565b95508019841693508086168417925050509392505050565b6000819050919050565b6000610f8b610f86610f8184610a92565b610f66565b610a92565b9050919050565b6000819050919050565b610fa583610f70565b610fb9610fb182610f92565b848454610f14565b825550505050565b600090565b610fce610fc1565b610fd9818484610f9c565b505050565b5b81811015610ffd57610ff2600082610fc6565b600181019050610fdf565b5050565b601f8211156110425761101381610ee2565b61101c84610ef7565b8101602085101561102b578190505b61103f61103785610ef7565b830182610fde565b50505b505050565b600082821c905092915050565b600061106560001984600802611047565b1980831691505092915050565b600061107e8383611054565b9150826002028217905092915050565b61109782610a02565b67ffffffffffffffff8111156110b0576110af610bac565b5b6110ba8254610e5e565b6110c5828285611001565b600060209050601f8311600181146110f857600084156110e6578287015190505b6110f08582611072565b865550611158565b601f19841661110686610ee2565b60005b8281101561112e57848901518255600182019150602085019450602081019050611109565b8683101561114b5784890151611147601f891682611054565b8355505b6001600288020188555050505b505050505050565b7f4f6e6c7920757365722063616e2072657175657374207061796d656e74000000600082015250565b6000611196601d83610a0d565b91506111a182611160565b602082019050919050565b600060208201905081810360008301526111c581611189565b9050919050565b7f4e487b7100000000000000000000000000000000000000000000000000000000600052601160045260246000fd5b600061120682610a92565b915061121183610a92565b9250828203905081811115611229576112286111cc565b5b92915050565b600081905092915050565b50565b600061124a60008361122f565b91506112558261123a565b600082019050919050565b600061126b8261123d565b915081905091905056fea264697066735822122002142eea29b60b1823df6ad8c4345c744e19960fe6df2ba4161efd28fe5a518e64736f6c63430008110033",
  "immutableReferences": {},
  "source": "//SPDX-License-Identifier: MIT\npragma solidity ^0.8.9;\n\nimport \"./User.sol\";\nimport \"./Bill.sol\";\n\nerror Company_InsuffiecientRequest();\nerror Company_SendToBillFailed();\n\ncontract Company {\n    string public policyListString;\n    address private CompanyWalletAddress;\n\n    struct Holder {\n        address userAddress;\n        string policyId;\n        string userPolicyId;\n        uint256 totalAmount;\n        uint256 claimed;\n        address[] bills;\n    }\n    mapping(address => Holder) public holderList;\n\n    address[] public requestsArrived;\n\n    constructor(address _CompanyWalletAddress, string memory _policyListString)\n    {\n        policyListString = _policyListString;\n        CompanyWalletAddress = _CompanyWalletAddress;\n    }\n\n    function addPolicyForUser(\n        address userWalletAddress,\n        address userContractAddress,\n        string memory policyId,\n        string memory userPolicyId,\n        uint256 totalAmount,\n        uint256 claimed\n    ) public {\n        User currentUser = User(userContractAddress);\n        currentUser.addPolicyForUser(\n            policyId,\n            userPolicyId,\n            totalAmount,\n            claimed\n        );\n\n        holderList[userWalletAddress] = Holder(\n            userContractAddress,\n            policyId,\n            userPolicyId,\n            totalAmount,\n            claimed,\n            new address[](0)\n        );\n    }\n\n    function requestedPayment(\n        address _userWalletAddress,\n        address _billAddress,\n        uint256 amount\n    ) public {\n        require(\n            holderList[_userWalletAddress].userAddress == msg.sender,\n            \"Only user can request payment\"\n        );\n        if (\n            (holderList[_userWalletAddress].totalAmount -\n                holderList[_userWalletAddress].claimed) < amount\n        ) {\n            revert Company_InsuffiecientRequest();\n        }\n        requestsArrived.push(_billAddress);\n        holderList[_userWalletAddress].bills.push(_billAddress);\n    }\n\n    function companyPayBill(address _billAddress, uint256 amount) public {\n        (\n            bool callSuccess, /*bytes memory dataReturned*/\n\n        ) = payable(_billAddress).call{value: amount}(\"\");\n        if (!callSuccess) {\n            revert Company_SendToBillFailed();\n        }\n    }\n}\n",
  "sourcePath": "/Users/rakshith/projects/healocode/contracts/Company.sol",
  "compiler": {
    "name": "solc",
    "version": "0.8.17+commit.8df45f5f.Emscripten.clang"
  },
  "schemaVersion": "3.4.11",
  "updatedAt": "2023-02-04T17:31:07.822Z",
  "devdoc": {
    "kind": "dev",
    "methods": {},
    "version": 1
  },
  "userdoc": {
    "kind": "user",
    "methods": {},
    "version": 1
  }
}