{
  "contractName": "Factory",
  "abi": [
    {
      "inputs": [
        {
          "internalType": "address",
          "name": "",
          "type": "address"
        }
      ],
      "name": "hospitalList",
      "outputs": [
        {
          "internalType": "string",
          "name": "ipfs",
          "type": "string"
        },
        {
          "internalType": "address",
          "name": "addr",
          "type": "address"
        },
        {
          "internalType": "bool",
          "name": "valid",
          "type": "bool"
        }
      ],
      "stateMutability": "view",
      "type": "function",
      "constant": true
    },
    {
      "inputs": [
        {
          "internalType": "address",
          "name": "",
          "type": "address"
        }
      ],
      "name": "insuranceCompanyList",
      "outputs": [
        {
          "internalType": "string",
          "name": "ipfs",
          "type": "string"
        },
        {
          "internalType": "address",
          "name": "addr",
          "type": "address"
        },
        {
          "internalType": "bool",
          "name": "valid",
          "type": "bool"
        }
      ],
      "stateMutability": "view",
      "type": "function",
      "constant": true
    },
    {
      "inputs": [
        {
          "internalType": "address",
          "name": "",
          "type": "address"
        }
      ],
      "name": "userList",
      "outputs": [
        {
          "internalType": "string",
          "name": "ipfs",
          "type": "string"
        },
        {
          "internalType": "address",
          "name": "addr",
          "type": "address"
        },
        {
          "internalType": "bool",
          "name": "valid",
          "type": "bool"
        }
      ],
      "stateMutability": "view",
      "type": "function",
      "constant": true
    },
    {
      "inputs": [
        {
          "internalType": "address",
          "name": "addr",
          "type": "address"
        }
      ],
      "name": "checkAccountType",
      "outputs": [
        {
          "internalType": "string",
          "name": "ipfs",
          "type": "string"
        },
        {
          "internalType": "address",
          "name": "depAddr",
          "type": "address"
        }
      ],
      "stateMutability": "view",
      "type": "function",
      "constant": true
    },
    {
      "inputs": [
        {
          "internalType": "string",
          "name": "ipfs",
          "type": "string"
        }
      ],
      "name": "createUser",
      "outputs": [],
      "stateMutability": "nonpayable",
      "type": "function"
    },
    {
      "inputs": [
        {
          "internalType": "string",
          "name": "ipfs",
          "type": "string"
        }
      ],
      "name": "createHospital",
      "outputs": [],
      "stateMutability": "nonpayable",
      "type": "function"
    },
    {
      "inputs": [
        {
          "internalType": "string",
          "name": "ipfs",
          "type": "string"
        }
      ],
      "name": "createInsuranceCompany",
      "outputs": [],
      "stateMutability": "nonpayable",
      "type": "function"
    }
  ],
  "bytecode": "0x608060405234801561001057600080fd5b50615b9f806100206000396000f3fe60806040523480156200001157600080fd5b5060043610620000885760003560e01c80638b50c9d911620000635780638b50c9d91462000105578063b296eec6146200013c578063d3bb895c146200015c578063e61025cd14620001945762000088565b80631b4e7bd2146200008d578063507ffba514620000c557806355dc106614620000e5575b600080fd5b620000ab6004803603810190620000a5919062000ec0565b620001cc565b604051620000bc9392919062000fba565b60405180910390f35b620000e36004803603810190620000dd91906200114f565b620002b3565b005b620001036004803603810190620000fd91906200114f565b620003e8565b005b6200012360048036038101906200011d919062000ec0565b6200051e565b60405162000133929190620011a0565b60405180910390f35b6200015a60048036038101906200015491906200114f565b62000b17565b005b6200017a600480360381019062000174919062000ec0565b62000c4f565b6040516200018b9392919062000fba565b60405180910390f35b620001b26004803603810190620001ac919062000ec0565b62000d36565b604051620001c39392919062000fba565b60405180910390f35b6000602052806000526040600020600091509050806000018054620001f19062001203565b80601f01602080910402602001604051908101604052809291908181526020018280546200021f9062001203565b8015620002705780601f10620002445761010080835404028352916020019162000270565b820191906000526020600020905b8154815290600101906020018083116200025257829003601f168201915b5050505050908060010160009054906101000a900473ffffffffffffffffffffffffffffffffffffffff16908060010160149054906101000a900460ff16905083565b600081604051620002c49062000e1d565b620002d0919062001238565b604051809103906000f080158015620002ed573d6000803e3d6000fd5b50905060405180606001604052808381526020018273ffffffffffffffffffffffffffffffffffffffff168152602001600115158152506000803373ffffffffffffffffffffffffffffffffffffffff1673ffffffffffffffffffffffffffffffffffffffff168152602001908152602001600020600082015181600001908162000379919062001438565b5060208201518160010160006101000a81548173ffffffffffffffffffffffffffffffffffffffff021916908373ffffffffffffffffffffffffffffffffffffffff16021790555060408201518160010160146101000a81548160ff0219169083151502179055509050505050565b600081604051620003f99062000e2b565b62000405919062001238565b604051809103906000f08015801562000422573d6000803e3d6000fd5b50905060405180606001604052808381526020018273ffffffffffffffffffffffffffffffffffffffff16815260200160011515815250600160003373ffffffffffffffffffffffffffffffffffffffff1673ffffffffffffffffffffffffffffffffffffffff1681526020019081526020016000206000820151816000019081620004af919062001438565b5060208201518160010160006101000a81548173ffffffffffffffffffffffffffffffffffffffff021916908373ffffffffffffffffffffffffffffffffffffffff16021790555060408201518160010160146101000a81548160ff0219169083151502179055509050505050565b606060008060008473ffffffffffffffffffffffffffffffffffffffff1673ffffffffffffffffffffffffffffffffffffffff16815260200190815260200160002060010160149054906101000a900460ff16158015620005cc5750600160008473ffffffffffffffffffffffffffffffffffffffff1673ffffffffffffffffffffffffffffffffffffffff16815260200190815260200160002060010160149054906101000a900460ff16155b8015620006265750600260008473ffffffffffffffffffffffffffffffffffffffff1673ffffffffffffffffffffffffffffffffffffffff16815260200190815260200160002060010160149054906101000a900460ff16155b156200064957600060405180602001604052806000815250909150915062000b12565b6000808473ffffffffffffffffffffffffffffffffffffffff1673ffffffffffffffffffffffffffffffffffffffff16815260200190815260200160002060010160149054906101000a900460ff1615620007df576000808473ffffffffffffffffffffffffffffffffffffffff1673ffffffffffffffffffffffffffffffffffffffff1681526020019081526020016000206000016000808573ffffffffffffffffffffffffffffffffffffffff1673ffffffffffffffffffffffffffffffffffffffff16815260200190815260200160002060010160009054906101000a900473ffffffffffffffffffffffffffffffffffffffff168180546200074f9062001203565b80601f01602080910402602001604051908101604052809291908181526020018280546200077d9062001203565b8015620007ce5780601f10620007a257610100808354040283529160200191620007ce565b820191906000526020600020905b815481529060010190602001808311620007b057829003601f168201915b505050505091509150915062000b12565b600160008473ffffffffffffffffffffffffffffffffffffffff1673ffffffffffffffffffffffffffffffffffffffff16815260200190815260200160002060010160149054906101000a900460ff16156200097857600160008473ffffffffffffffffffffffffffffffffffffffff1673ffffffffffffffffffffffffffffffffffffffff168152602001908152602001600020600001600160008573ffffffffffffffffffffffffffffffffffffffff1673ffffffffffffffffffffffffffffffffffffffff16815260200190815260200160002060010160009054906101000a900473ffffffffffffffffffffffffffffffffffffffff16818054620008e89062001203565b80601f0160208091040260200160405190810160405280929190818152602001828054620009169062001203565b8015620009675780601f106200093b5761010080835404028352916020019162000967565b820191906000526020600020905b8154815290600101906020018083116200094957829003601f168201915b505050505091509150915062000b12565b600260008473ffffffffffffffffffffffffffffffffffffffff1673ffffffffffffffffffffffffffffffffffffffff16815260200190815260200160002060010160149054906101000a900460ff161562000b1157600260008473ffffffffffffffffffffffffffffffffffffffff1673ffffffffffffffffffffffffffffffffffffffff168152602001908152602001600020600001600260008573ffffffffffffffffffffffffffffffffffffffff1673ffffffffffffffffffffffffffffffffffffffff16815260200190815260200160002060010160009054906101000a900473ffffffffffffffffffffffffffffffffffffffff1681805462000a819062001203565b80601f016020809104026020016040519081016040528092919081815260200182805462000aaf9062001203565b801562000b005780601f1062000ad45761010080835404028352916020019162000b00565b820191906000526020600020905b81548152906001019060200180831162000ae257829003601f168201915b505050505091509150915062000b12565b5b915091565b6000338260405162000b299062000e39565b62000b369291906200151f565b604051809103906000f08015801562000b53573d6000803e3d6000fd5b50905060405180606001604052808381526020018273ffffffffffffffffffffffffffffffffffffffff16815260200160011515815250600260003373ffffffffffffffffffffffffffffffffffffffff1673ffffffffffffffffffffffffffffffffffffffff168152602001908152602001600020600082015181600001908162000be0919062001438565b5060208201518160010160006101000a81548173ffffffffffffffffffffffffffffffffffffffff021916908373ffffffffffffffffffffffffffffffffffffffff16021790555060408201518160010160146101000a81548160ff0219169083151502179055509050505050565b600260205280600052604060002060009150905080600001805462000c749062001203565b80601f016020809104026020016040519081016040528092919081815260200182805462000ca29062001203565b801562000cf35780601f1062000cc75761010080835404028352916020019162000cf3565b820191906000526020600020905b81548152906001019060200180831162000cd557829003601f168201915b5050505050908060010160009054906101000a900473ffffffffffffffffffffffffffffffffffffffff16908060010160149054906101000a900460ff16905083565b600160205280600052604060002060009150905080600001805462000d5b9062001203565b80601f016020809104026020016040519081016040528092919081815260200182805462000d899062001203565b801562000dda5780601f1062000dae5761010080835404028352916020019162000dda565b820191906000526020600020905b81548152906001019060200180831162000dbc57829003601f168201915b5050505050908060010160009054906101000a900473ffffffffffffffffffffffffffffffffffffffff16908060010160149054906101000a900460ff16905083565b6111db806200155483390190565b611b5e806200272f83390190565b6118dd806200428d83390190565b6000604051905090565b600080fd5b600080fd5b600073ffffffffffffffffffffffffffffffffffffffff82169050919050565b600062000e888262000e5b565b9050919050565b62000e9a8162000e7b565b811462000ea657600080fd5b50565b60008135905062000eba8162000e8f565b92915050565b60006020828403121562000ed95762000ed862000e51565b5b600062000ee98482850162000ea9565b91505092915050565b600081519050919050565b600082825260208201905092915050565b60005b8381101562000f2e57808201518184015260208101905062000f11565b60008484015250505050565b6000601f19601f8301169050919050565b600062000f588262000ef2565b62000f64818562000efd565b935062000f7681856020860162000f0e565b62000f818162000f3a565b840191505092915050565b62000f978162000e7b565b82525050565b60008115159050919050565b62000fb48162000f9d565b82525050565b6000606082019050818103600083015262000fd6818662000f4b565b905062000fe7602083018562000f8c565b62000ff6604083018462000fa9565b949350505050565b600080fd5b600080fd5b7f4e487b7100000000000000000000000000000000000000000000000000000000600052604160045260246000fd5b620010428262000f3a565b810181811067ffffffffffffffff8211171562001064576200106362001008565b5b80604052505050565b60006200107962000e47565b905062001087828262001037565b919050565b600067ffffffffffffffff821115620010aa57620010a962001008565b5b620010b58262000f3a565b9050602081019050919050565b82818337600083830152505050565b6000620010e8620010e2846200108c565b6200106d565b90508281526020810184848401111562001107576200110662001003565b5b62001114848285620010c2565b509392505050565b600082601f83011262001134576200113362000ffe565b5b813562001146848260208601620010d1565b91505092915050565b60006020828403121562001168576200116762000e51565b5b600082013567ffffffffffffffff81111562001189576200118862000e56565b5b62001197848285016200111c565b91505092915050565b60006040820190508181036000830152620011bc818562000f4b565b9050620011cd602083018462000f8c565b9392505050565b7f4e487b7100000000000000000000000000000000000000000000000000000000600052602260045260246000fd5b600060028204905060018216806200121c57607f821691505b602082108103620012325762001231620011d4565b5b50919050565b6000602082019050818103600083015262001254818462000f4b565b905092915050565b60008190508160005260206000209050919050565b60006020601f8301049050919050565b600082821b905092915050565b600060088302620012c07fffffffffffffffffffffffffffffffffffffffffffffffffffffffffffffffff8262001281565b620012cc868362001281565b95508019841693508086168417925050509392505050565b6000819050919050565b6000819050919050565b600062001319620013136200130d84620012e4565b620012ee565b620012e4565b9050919050565b6000819050919050565b6200133583620012f8565b6200134d620013448262001320565b8484546200128e565b825550505050565b600090565b6200136462001355565b620013718184846200132a565b505050565b5b8181101562001399576200138d6000826200135a565b60018101905062001377565b5050565b601f821115620013e857620013b2816200125c565b620013bd8462001271565b81016020851015620013cd578190505b620013e5620013dc8562001271565b83018262001376565b50505b505050565b600082821c905092915050565b60006200140d60001984600802620013ed565b1980831691505092915050565b6000620014288383620013fa565b9150826002028217905092915050565b620014438262000ef2565b67ffffffffffffffff8111156200145f576200145e62001008565b5b6200146b825462001203565b620014788282856200139d565b600060209050601f831160018114620014b057600084156200149b578287015190505b620014a785826200141a565b86555062001517565b601f198416620014c0866200125c565b60005b82811015620014ea57848901518255600182019150602085019450602081019050620014c3565b868310156200150a578489015162001506601f891682620013fa565b8355505b6001600288020188555050505b505050505050565b600060408201905062001536600083018562000f8c565b81810360208301526200154a818462000f4b565b9050939250505056fe60806040523480156200001157600080fd5b50604051620011db380380620011db8339818101604052810190620000379190620001e3565b80600090816200004891906200047f565b505062000566565b6000604051905090565b600080fd5b600080fd5b600080fd5b600080fd5b6000601f19601f8301169050919050565b7f4e487b7100000000000000000000000000000000000000000000000000000000600052604160045260246000fd5b620000b9826200006e565b810181811067ffffffffffffffff82111715620000db57620000da6200007f565b5b80604052505050565b6000620000f062000050565b9050620000fe8282620000ae565b919050565b600067ffffffffffffffff8211156200012157620001206200007f565b5b6200012c826200006e565b9050602081019050919050565b60005b83811015620001595780820151818401526020810190506200013c565b60008484015250505050565b60006200017c620001768462000103565b620000e4565b9050828152602081018484840111156200019b576200019a62000069565b5b620001a884828562000139565b509392505050565b600082601f830112620001c857620001c762000064565b5b8151620001da84826020860162000165565b91505092915050565b600060208284031215620001fc57620001fb6200005a565b5b600082015167ffffffffffffffff8111156200021d576200021c6200005f565b5b6200022b84828501620001b0565b91505092915050565b600081519050919050565b7f4e487b7100000000000000000000000000000000000000000000000000000000600052602260045260246000fd5b600060028204905060018216806200028757607f821691505b6020821081036200029d576200029c6200023f565b5b50919050565b60008190508160005260206000209050919050565b60006020601f8301049050919050565b600082821b905092915050565b600060088302620003077fffffffffffffffffffffffffffffffffffffffffffffffffffffffffffffffff82620002c8565b620003138683620002c8565b95508019841693508086168417925050509392505050565b6000819050919050565b6000819050919050565b6000620003606200035a62000354846200032b565b62000335565b6200032b565b9050919050565b6000819050919050565b6200037c836200033f565b620003946200038b8262000367565b848454620002d5565b825550505050565b600090565b620003ab6200039c565b620003b881848462000371565b505050565b5b81811015620003e057620003d4600082620003a1565b600181019050620003be565b5050565b601f8211156200042f57620003f981620002a3565b6200040484620002b8565b8101602085101562000414578190505b6200042c6200042385620002b8565b830182620003bd565b50505b505050565b600082821c905092915050565b6000620004546000198460080262000434565b1980831691505092915050565b60006200046f838362000441565b9150826002028217905092915050565b6200048a8262000234565b67ffffffffffffffff811115620004a657620004a56200007f565b5b620004b282546200026e565b620004bf828285620003e4565b600060209050601f831160018114620004f75760008415620004e2578287015190505b620004ee858262000461565b8655506200055e565b601f1984166200050786620002a3565b60005b8281101562000531578489015182556001820191506020850194506020810190506200050a565b868310156200055157848901516200054d601f89168262000441565b8355505b6001600288020188555050505b505050505050565b610c6580620005766000396000f3fe608060405234801561001057600080fd5b50600436106100575760003560e01c806306a0e5401461005c5780633854c3131461007e578063ab2a7fdb1461009a578063d7959cf9146100b6578063e8314f27146100d4575b600080fd5b6100646100f0565b6040516100759594939291906105d1565b60405180910390f35b6100986004803603810190610093919061069e565b610244565b005b6100b460048036038101906100af919061069e565b6102e2565b005b6100be61038a565b6040516100cb91906106de565b60405180910390f35b6100ee60048036038101906100e99190610835565b610418565b005b600180600001805461010190610903565b80601f016020809104026020016040519081016040528092919081815260200182805461012d90610903565b801561017a5780601f1061014f5761010080835404028352916020019161017a565b820191906000526020600020905b81548152906001019060200180831161015d57829003601f168201915b50505050509080600101805461018f90610903565b80601f01602080910402602001604051908101604052809291908181526020018280546101bb90610903565b80156102085780601f106101dd57610100808354040283529160200191610208565b820191906000526020600020905b8154815290600101906020018083116101eb57829003601f168201915b5050505050908060020154908060030154908060040160009054906101000a900473ffffffffffffffffffffffffffffffffffffffff16905085565b6000600160040160009054906101000a900473ffffffffffffffffffffffffffffffffffffffff1690508073ffffffffffffffffffffffffffffffffffffffff16636dd86d043385856040518463ffffffff1660e01b81526004016102ab93929190610934565b600060405180830381600087803b1580156102c557600080fd5b505af11580156102d9573d6000803e3d6000fd5b50505050505050565b60008273ffffffffffffffffffffffffffffffffffffffff16826040516103089061099c565b60006040518083038185875af1925050503d8060008114610345576040519150601f19603f3d011682016040523d82523d6000602084013e61034a565b606091505b5050905080610385576040517f6b34071b00000000000000000000000000000000000000000000000000000000815260040160405180910390fd5b505050565b6000805461039790610903565b80601f01602080910402602001604051908101604052809291908181526020018280546103c390610903565b80156104105780601f106103e557610100808354040283529160200191610410565b820191906000526020600020905b8154815290600101906020018083116103f357829003601f168201915b505050505081565b6040518060a001604052808581526020018481526020018381526020018281526020013373ffffffffffffffffffffffffffffffffffffffff168152506001600082015181600001908161046c9190610b5d565b5060208201518160010190816104829190610b5d565b50604082015181600201556060820151816003015560808201518160040160006101000a81548173ffffffffffffffffffffffffffffffffffffffff021916908373ffffffffffffffffffffffffffffffffffffffff16021790555090505050505050565b600081519050919050565b600082825260208201905092915050565b60005b83811015610521578082015181840152602081019050610506565b60008484015250505050565b6000601f19601f8301169050919050565b6000610549826104e7565b61055381856104f2565b9350610563818560208601610503565b61056c8161052d565b840191505092915050565b6000819050919050565b61058a81610577565b82525050565b600073ffffffffffffffffffffffffffffffffffffffff82169050919050565b60006105bb82610590565b9050919050565b6105cb816105b0565b82525050565b600060a08201905081810360008301526105eb818861053e565b905081810360208301526105ff818761053e565b905061060e6040830186610581565b61061b6060830185610581565b61062860808301846105c2565b9695505050505050565b6000604051905090565b600080fd5b600080fd5b61064f816105b0565b811461065a57600080fd5b50565b60008135905061066c81610646565b92915050565b61067b81610577565b811461068657600080fd5b50565b60008135905061069881610672565b92915050565b600080604083850312156106b5576106b461063c565b5b60006106c38582860161065d565b92505060206106d485828601610689565b9150509250929050565b600060208201905081810360008301526106f8818461053e565b905092915050565b600080fd5b600080fd5b7f4e487b7100000000000000000000000000000000000000000000000000000000600052604160045260246000fd5b6107428261052d565b810181811067ffffffffffffffff821117156107615761076061070a565b5b80604052505050565b6000610774610632565b90506107808282610739565b919050565b600067ffffffffffffffff8211156107a05761079f61070a565b5b6107a98261052d565b9050602081019050919050565b82818337600083830152505050565b60006107d86107d384610785565b61076a565b9050828152602081018484840111156107f4576107f3610705565b5b6107ff8482856107b6565b509392505050565b600082601f83011261081c5761081b610700565b5b813561082c8482602086016107c5565b91505092915050565b6000806000806080858703121561084f5761084e61063c565b5b600085013567ffffffffffffffff81111561086d5761086c610641565b5b61087987828801610807565b945050602085013567ffffffffffffffff81111561089a57610899610641565b5b6108a687828801610807565b93505060406108b787828801610689565b92505060606108c887828801610689565b91505092959194509250565b7f4e487b7100000000000000000000000000000000000000000000000000000000600052602260045260246000fd5b6000600282049050600182168061091b57607f821691505b60208210810361092e5761092d6108d4565b5b50919050565b600060608201905061094960008301866105c2565b61095660208301856105c2565b6109636040830184610581565b949350505050565b600081905092915050565b50565b600061098660008361096b565b915061099182610976565b600082019050919050565b60006109a782610979565b9150819050919050565b60008190508160005260206000209050919050565b60006020601f8301049050919050565b600082821b905092915050565b600060088302610a137fffffffffffffffffffffffffffffffffffffffffffffffffffffffffffffffff826109d6565b610a1d86836109d6565b95508019841693508086168417925050509392505050565b6000819050919050565b6000610a5a610a55610a5084610577565b610a35565b610577565b9050919050565b6000819050919050565b610a7483610a3f565b610a88610a8082610a61565b8484546109e3565b825550505050565b600090565b610a9d610a90565b610aa8818484610a6b565b505050565b5b81811015610acc57610ac1600082610a95565b600181019050610aae565b5050565b601f821115610b1157610ae2816109b1565b610aeb846109c6565b81016020851015610afa578190505b610b0e610b06856109c6565b830182610aad565b50505b505050565b600082821c905092915050565b6000610b3460001984600802610b16565b1980831691505092915050565b6000610b4d8383610b23565b9150826002028217905092915050565b610b66826104e7565b67ffffffffffffffff811115610b7f57610b7e61070a565b5b610b898254610903565b610b94828285610ad0565b600060209050601f831160018114610bc75760008415610bb5578287015190505b610bbf8582610b41565b865550610c27565b601f198416610bd5866109b1565b60005b82811015610bfd57848901518255600182019150602085019450602081019050610bd8565b86831015610c1a5784890151610c16601f891682610b23565b8355505b6001600288020188555050505b50505050505056fea264697066735822122054c0835b80c70e0fb50d5b683ccf69a806ec6f391e2be1250107e44cc761fea164736f6c6343000811003360806040523480156200001157600080fd5b5060405162001b5e38038062001b5e8339818101604052810190620000379190620001e3565b80600190816200004891906200047f565b505062000566565b6000604051905090565b600080fd5b600080fd5b600080fd5b600080fd5b6000601f19601f8301169050919050565b7f4e487b7100000000000000000000000000000000000000000000000000000000600052604160045260246000fd5b620000b9826200006e565b810181811067ffffffffffffffff82111715620000db57620000da6200007f565b5b80604052505050565b6000620000f062000050565b9050620000fe8282620000ae565b919050565b600067ffffffffffffffff8211156200012157620001206200007f565b5b6200012c826200006e565b9050602081019050919050565b60005b83811015620001595780820151818401526020810190506200013c565b60008484015250505050565b60006200017c620001768462000103565b620000e4565b9050828152602081018484840111156200019b576200019a62000069565b5b620001a884828562000139565b509392505050565b600082601f830112620001c857620001c762000064565b5b8151620001da84826020860162000165565b91505092915050565b600060208284031215620001fc57620001fb6200005a565b5b600082015167ffffffffffffffff8111156200021d576200021c6200005f565b5b6200022b84828501620001b0565b91505092915050565b600081519050919050565b7f4e487b7100000000000000000000000000000000000000000000000000000000600052602260045260246000fd5b600060028204905060018216806200028757607f821691505b6020821081036200029d576200029c6200023f565b5b50919050565b60008190508160005260206000209050919050565b60006020601f8301049050919050565b600082821b905092915050565b600060088302620003077fffffffffffffffffffffffffffffffffffffffffffffffffffffffffffffffff82620002c8565b620003138683620002c8565b95508019841693508086168417925050509392505050565b6000819050919050565b6000819050919050565b6000620003606200035a62000354846200032b565b62000335565b6200032b565b9050919050565b6000819050919050565b6200037c836200033f565b620003946200038b8262000367565b848454620002d5565b825550505050565b600090565b620003ab6200039c565b620003b881848462000371565b505050565b5b81811015620003e057620003d4600082620003a1565b600181019050620003be565b5050565b601f8211156200042f57620003f981620002a3565b6200040484620002b8565b8101602085101562000414578190505b6200042c6200042385620002b8565b830182620003bd565b50505b505050565b600082821c905092915050565b6000620004546000198460080262000434565b1980831691505092915050565b60006200046f838362000441565b9150826002028217905092915050565b6200048a8262000234565b67ffffffffffffffff811115620004a657620004a56200007f565b5b620004b282546200026e565b620004bf828285620003e4565b600060209050601f831160018114620004f75760008415620004e2578287015190505b620004ee858262000461565b8655506200055e565b601f1984166200050786620002a3565b60005b8281101562000531578489015182556001820191506020850194506020810190506200050a565b868310156200055157848901516200054d601f89168262000441565b8355505b6001600288020188555050505b505050505050565b6115e880620005766000396000f3fe60806040523480156200001157600080fd5b5060043610620000525760003560e01c806344e31c0814620000575780635046992a1462000079578063a35a36e914620000af578063c2a151cf14620000cf575b600080fd5b62000061620000ef565b604051620000709190620003df565b60405180910390f35b620000976004803603810190620000919190620004b7565b62000185565b604051620000a691906200050f565b60405180910390f35b620000cd6004803603810190620000c791906200052c565b620001d4565b005b620000ed6004803603810190620000e79190620006af565b6200024c565b005b60018054620000fe906200078e565b80601f01602080910402602001604051908101604052809291908181526020018280546200012c906200078e565b80156200017d5780601f1062000151576101008083540402835291602001916200017d565b820191906000526020600020905b8154815290600101906020018083116200015f57829003601f168201915b505050505081565b60006020528160005260406000208181548110620001a257600080fd5b906000526020600020016000915091509054906101000a900473ffffffffffffffffffffffffffffffffffffffff1681565b60008190508073ffffffffffffffffffffffffffffffffffffffff166351cff8d9336040518263ffffffff1660e01b81526004016200021491906200050f565b600060405180830381600087803b1580156200022f57600080fd5b505af115801562000244573d6000803e3d6000fd5b505050505050565b60008484338486604051620002619062000337565b62000271959493929190620007d4565b604051809103906000f0801580156200028e573d6000803e3d6000fd5b5090506000808473ffffffffffffffffffffffffffffffffffffffff1673ffffffffffffffffffffffffffffffffffffffff168152602001908152602001600020819080600181540180825580915050600190039060005260206000200160009091909190916101000a81548173ffffffffffffffffffffffffffffffffffffffff021916908373ffffffffffffffffffffffffffffffffffffffff1602179055505050505050565b610d73806200084083390190565b600081519050919050565b600082825260208201905092915050565b60005b838110156200038157808201518184015260208101905062000364565b60008484015250505050565b6000601f19601f8301169050919050565b6000620003ab8262000345565b620003b7818562000350565b9350620003c981856020860162000361565b620003d4816200038d565b840191505092915050565b60006020820190508181036000830152620003fb81846200039e565b905092915050565b6000604051905090565b600080fd5b600080fd5b600073ffffffffffffffffffffffffffffffffffffffff82169050919050565b6000620004448262000417565b9050919050565b620004568162000437565b81146200046257600080fd5b50565b60008135905062000476816200044b565b92915050565b6000819050919050565b62000491816200047c565b81146200049d57600080fd5b50565b600081359050620004b18162000486565b92915050565b60008060408385031215620004d157620004d06200040d565b5b6000620004e18582860162000465565b9250506020620004f485828601620004a0565b9150509250929050565b620005098162000437565b82525050565b6000602082019050620005266000830184620004fe565b92915050565b6000602082840312156200054557620005446200040d565b5b6000620005558482850162000465565b91505092915050565b600080fd5b600080fd5b7f4e487b7100000000000000000000000000000000000000000000000000000000600052604160045260246000fd5b620005a2826200038d565b810181811067ffffffffffffffff82111715620005c457620005c362000568565b5b80604052505050565b6000620005d962000403565b9050620005e7828262000597565b919050565b600067ffffffffffffffff8211156200060a576200060962000568565b5b62000615826200038d565b9050602081019050919050565b82818337600083830152505050565b6000620006486200064284620005ec565b620005cd565b90508281526020810184848401111562000667576200066662000563565b5b6200067484828562000622565b509392505050565b600082601f8301126200069457620006936200055e565b5b8135620006a684826020860162000631565b91505092915050565b60008060008060808587031215620006cc57620006cb6200040d565b5b600085013567ffffffffffffffff811115620006ed57620006ec62000412565b5b620006fb878288016200067c565b94505060206200070e87828801620004a0565b9350506040620007218782880162000465565b925050606085013567ffffffffffffffff81111562000745576200074462000412565b5b62000753878288016200067c565b91505092959194509250565b7f4e487b7100000000000000000000000000000000000000000000000000000000600052602260045260246000fd5b60006002820490506001821680620007a757607f821691505b602082108103620007bd57620007bc6200075f565b5b50919050565b620007ce816200047c565b82525050565b600060a0820190508181036000830152620007f081886200039e565b9050620008016020830187620007c3565b620008106040830186620004fe565b81810360608301526200082481856200039e565b9050620008356080830184620004fe565b969550505050505056fe60806040523480156200001157600080fd5b5060405162000d7338038062000d73833981810160405281019062000037919062000322565b846000908162000048919062000629565b508360018190555082600260006101000a81548173ffffffffffffffffffffffffffffffffffffffff021916908373ffffffffffffffffffffffffffffffffffffffff1602179055508160039081620000a2919062000629565b5080600460006101000a81548173ffffffffffffffffffffffffffffffffffffffff021916908373ffffffffffffffffffffffffffffffffffffffff160217905550505050505062000710565b6000604051905090565b600080fd5b600080fd5b600080fd5b600080fd5b6000601f19601f8301169050919050565b7f4e487b7100000000000000000000000000000000000000000000000000000000600052604160045260246000fd5b62000158826200010d565b810181811067ffffffffffffffff821117156200017a57620001796200011e565b5b80604052505050565b60006200018f620000ef565b90506200019d82826200014d565b919050565b600067ffffffffffffffff821115620001c057620001bf6200011e565b5b620001cb826200010d565b9050602081019050919050565b60005b83811015620001f8578082015181840152602081019050620001db565b60008484015250505050565b60006200021b6200021584620001a2565b62000183565b9050828152602081018484840111156200023a576200023962000108565b5b62000247848285620001d8565b509392505050565b600082601f83011262000267576200026662000103565b5b81516200027984826020860162000204565b91505092915050565b6000819050919050565b620002978162000282565b8114620002a357600080fd5b50565b600081519050620002b7816200028c565b92915050565b600073ffffffffffffffffffffffffffffffffffffffff82169050919050565b6000620002ea82620002bd565b9050919050565b620002fc81620002dd565b81146200030857600080fd5b50565b6000815190506200031c81620002f1565b92915050565b600080600080600060a08688031215620003415762000340620000f9565b5b600086015167ffffffffffffffff811115620003625762000361620000fe565b5b62000370888289016200024f565b95505060206200038388828901620002a6565b945050604062000396888289016200030b565b935050606086015167ffffffffffffffff811115620003ba57620003b9620000fe565b5b620003c8888289016200024f565b9250506080620003db888289016200030b565b9150509295509295909350565b600081519050919050565b7f4e487b7100000000000000000000000000000000000000000000000000000000600052602260045260246000fd5b600060028204905060018216806200043b57607f821691505b602082108103620004515762000450620003f3565b5b50919050565b60008190508160005260206000209050919050565b60006020601f8301049050919050565b600082821b905092915050565b600060088302620004bb7fffffffffffffffffffffffffffffffffffffffffffffffffffffffffffffffff826200047c565b620004c786836200047c565b95508019841693508086168417925050509392505050565b6000819050919050565b60006200050a62000504620004fe8462000282565b620004df565b62000282565b9050919050565b6000819050919050565b6200052683620004e9565b6200053e620005358262000511565b84845462000489565b825550505050565b600090565b6200055562000546565b620005628184846200051b565b505050565b5b818110156200058a576200057e6000826200054b565b60018101905062000568565b5050565b601f821115620005d957620005a38162000457565b620005ae846200046c565b81016020851015620005be578190505b620005d6620005cd856200046c565b83018262000567565b50505b505050565b600082821c905092915050565b6000620005fe60001984600802620005de565b1980831691505092915050565b6000620006198383620005eb565b9150826002028217905092915050565b6200063482620003e8565b67ffffffffffffffff81111562000650576200064f6200011e565b5b6200065c825462000422565b620006698282856200058e565b600060209050601f831160018114620006a157600084156200068c578287015190505b6200069885826200060b565b86555062000708565b601f198416620006b18662000457565b60005b82811015620006db57848901518255600182019150602085019450602081019050620006b4565b86831015620006fb5784890151620006f7601f891682620005eb565b8355505b6001600288020188555050505b505050505050565b61065380620007206000396000f3fe608060405234801561001057600080fd5b50600436106100625760003560e01c80633a1806b41461006757806351cff8d9146100855780635f342441146100a1578063d7a5d985146100bf578063ee89ef3a146100dd578063f239da35146100fb575b600080fd5b61006f610119565b60405161007c9190610467565b60405180910390f35b61009f600480360381019061009a91906104ec565b6101a7565b005b6100a96102f7565b6040516100b69190610528565b60405180910390f35b6100c761031d565b6040516100d4919061055c565b60405180910390f35b6100e5610323565b6040516100f29190610467565b60405180910390f35b6101036103b1565b6040516101109190610528565b60405180910390f35b60008054610126906105a6565b80601f0160208091040260200160405190810160405280929190818152602001828054610152906105a6565b801561019f5780601f106101745761010080835404028352916020019161019f565b820191906000526020600020905b81548152906001019060200180831161018257829003601f168201915b505050505081565b600260009054906101000a900473ffffffffffffffffffffffffffffffffffffffff1673ffffffffffffffffffffffffffffffffffffffff168173ffffffffffffffffffffffffffffffffffffffff161461022e576040517fe0dbd8ee00000000000000000000000000000000000000000000000000000000815260040160405180910390fd5b6000600260009054906101000a900473ffffffffffffffffffffffffffffffffffffffff1673ffffffffffffffffffffffffffffffffffffffff164760405161027690610608565b60006040518083038185875af1925050503d80600081146102b3576040519150601f19603f3d011682016040523d82523d6000602084013e6102b8565b606091505b50509050806102f3576040517f1215784c00000000000000000000000000000000000000000000000000000000815260040160405180910390fd5b5050565b600260009054906101000a900473ffffffffffffffffffffffffffffffffffffffff1681565b60015481565b60038054610330906105a6565b80601f016020809104026020016040519081016040528092919081815260200182805461035c906105a6565b80156103a95780601f1061037e576101008083540402835291602001916103a9565b820191906000526020600020905b81548152906001019060200180831161038c57829003601f168201915b505050505081565b600460009054906101000a900473ffffffffffffffffffffffffffffffffffffffff1681565b600081519050919050565b600082825260208201905092915050565b60005b838110156104115780820151818401526020810190506103f6565b60008484015250505050565b6000601f19601f8301169050919050565b6000610439826103d7565b61044381856103e2565b93506104538185602086016103f3565b61045c8161041d565b840191505092915050565b60006020820190508181036000830152610481818461042e565b905092915050565b600080fd5b600073ffffffffffffffffffffffffffffffffffffffff82169050919050565b60006104b98261048e565b9050919050565b6104c9816104ae565b81146104d457600080fd5b50565b6000813590506104e6816104c0565b92915050565b60006020828403121561050257610501610489565b5b6000610510848285016104d7565b91505092915050565b610522816104ae565b82525050565b600060208201905061053d6000830184610519565b92915050565b6000819050919050565b61055681610543565b82525050565b6000602082019050610571600083018461054d565b92915050565b7f4e487b7100000000000000000000000000000000000000000000000000000000600052602260045260246000fd5b600060028204905060018216806105be57607f821691505b6020821081036105d1576105d0610577565b5b50919050565b600081905092915050565b50565b60006105f26000836105d7565b91506105fd826105e2565b600082019050919050565b6000610613826105e5565b915081905091905056fea26469706673582212200a89b68e67bd60b4e28064a12d9e60b0a8869073b96d7287dccb55d975a8e17264736f6c63430008110033a264697066735822122084e4a9a6dd7e506147938cb8d1f5f03b1b70ce3673aac7cec6e13678b000406764736f6c6343000811003360806040523480156200001157600080fd5b50604051620018dd380380620018dd83398181016040528101906200003791906200028a565b80600090816200004891906200053b565b5081600160006101000a81548173ffffffffffffffffffffffffffffffffffffffff021916908373ffffffffffffffffffffffffffffffffffffffff160217905550505062000622565b6000604051905090565b600080fd5b600080fd5b600073ffffffffffffffffffffffffffffffffffffffff82169050919050565b6000620000d382620000a6565b9050919050565b620000e581620000c6565b8114620000f157600080fd5b50565b6000815190506200010581620000da565b92915050565b600080fd5b600080fd5b6000601f19601f8301169050919050565b7f4e487b7100000000000000000000000000000000000000000000000000000000600052604160045260246000fd5b620001608262000115565b810181811067ffffffffffffffff8211171562000182576200018162000126565b5b80604052505050565b60006200019762000092565b9050620001a5828262000155565b919050565b600067ffffffffffffffff821115620001c857620001c762000126565b5b620001d38262000115565b9050602081019050919050565b60005b8381101562000200578082015181840152602081019050620001e3565b60008484015250505050565b6000620002236200021d84620001aa565b6200018b565b90508281526020810184848401111562000242576200024162000110565b5b6200024f848285620001e0565b509392505050565b600082601f8301126200026f576200026e6200010b565b5b8151620002818482602086016200020c565b91505092915050565b60008060408385031215620002a457620002a36200009c565b5b6000620002b485828601620000f4565b925050602083015167ffffffffffffffff811115620002d857620002d7620000a1565b5b620002e68582860162000257565b9150509250929050565b600081519050919050565b7f4e487b7100000000000000000000000000000000000000000000000000000000600052602260045260246000fd5b600060028204905060018216806200034357607f821691505b602082108103620003595762000358620002fb565b5b50919050565b60008190508160005260206000209050919050565b60006020601f8301049050919050565b600082821b905092915050565b600060088302620003c37fffffffffffffffffffffffffffffffffffffffffffffffffffffffffffffffff8262000384565b620003cf868362000384565b95508019841693508086168417925050509392505050565b6000819050919050565b6000819050919050565b60006200041c620004166200041084620003e7565b620003f1565b620003e7565b9050919050565b6000819050919050565b6200043883620003fb565b62000450620004478262000423565b84845462000391565b825550505050565b600090565b6200046762000458565b620004748184846200042d565b505050565b5b818110156200049c57620004906000826200045d565b6001810190506200047a565b5050565b601f821115620004eb57620004b5816200035f565b620004c08462000374565b81016020851015620004d0578190505b620004e8620004df8562000374565b83018262000479565b50505b505050565b600082821c905092915050565b60006200051060001984600802620004f0565b1980831691505092915050565b60006200052b8383620004fd565b9150826002028217905092915050565b6200054682620002f0565b67ffffffffffffffff81111562000562576200056162000126565b5b6200056e82546200032a565b6200057b828285620004a0565b600060209050601f831160018114620005b357600084156200059e578287015190505b620005aa85826200051d565b8655506200061a565b601f198416620005c3866200035f565b60005b82811015620005ed57848901518255600182019150602085019450602081019050620005c6565b868310156200060d578489015162000609601f891682620004fd565b8355505b6001600288020188555050505b505050505050565b6112ab80620006326000396000f3fe608060405234801561001057600080fd5b50600436106100625760003560e01c806305a955af146100675780631e6c45561461009b578063328c9754146100cb57806338c32c4b146100e95780636dd86d04146101055780636df3b9d414610121575b600080fd5b610081600480360381019061007c91906109c6565b61013d565b604051610092959493929190610aab565b60405180910390f35b6100b560048036038101906100b09190610b38565b6102a3565b6040516100c29190610b65565b60405180910390f35b6100d36102e2565b6040516100e09190610b80565b60405180910390f35b61010360048036038101906100fe9190610cd7565b610370565b005b61011f600480360381019061011a9190610d9c565b610561565b005b61013b60048036038101906101369190610def565b610805565b005b60026020528060005260406000206000915090508060000160009054906101000a900473ffffffffffffffffffffffffffffffffffffffff169080600101805461018690610e5e565b80601f01602080910402602001604051908101604052809291908181526020018280546101b290610e5e565b80156101ff5780601f106101d4576101008083540402835291602001916101ff565b820191906000526020600020905b8154815290600101906020018083116101e257829003601f168201915b50505050509080600201805461021490610e5e565b80601f016020809104026020016040519081016040528092919081815260200182805461024090610e5e565b801561028d5780601f106102625761010080835404028352916020019161028d565b820191906000526020600020905b81548152906001019060200180831161027057829003601f168201915b5050505050908060030154908060040154905085565b600381815481106102b357600080fd5b906000526020600020016000915054906101000a900473ffffffffffffffffffffffffffffffffffffffff1681565b600080546102ef90610e5e565b80601f016020809104026020016040519081016040528092919081815260200182805461031b90610e5e565b80156103685780601f1061033d57610100808354040283529160200191610368565b820191906000526020600020905b81548152906001019060200180831161034b57829003601f168201915b505050505081565b60008590508073ffffffffffffffffffffffffffffffffffffffff1663e8314f27868686866040518563ffffffff1660e01b81526004016103b49493929190610e8f565b600060405180830381600087803b1580156103ce57600080fd5b505af11580156103e2573d6000803e3d6000fd5b505050506040518060c001604052808773ffffffffffffffffffffffffffffffffffffffff168152602001868152602001858152602001848152602001838152602001600067ffffffffffffffff8111156104405761043f610bac565b5b60405190808252806020026020018201604052801561046e5781602001602082028036833780820191505090505b50815250600260008973ffffffffffffffffffffffffffffffffffffffff1673ffffffffffffffffffffffffffffffffffffffff16815260200190815260200160002060008201518160000160006101000a81548173ffffffffffffffffffffffffffffffffffffffff021916908373ffffffffffffffffffffffffffffffffffffffff160217905550602082015181600101908161050d919061108e565b506040820151816002019081610523919061108e565b50606082015181600301556080820151816004015560a08201518160050190805190602001906105549291906108ad565b5090505050505050505050565b3373ffffffffffffffffffffffffffffffffffffffff16600260008573ffffffffffffffffffffffffffffffffffffffff1673ffffffffffffffffffffffffffffffffffffffff16815260200190815260200160002060000160009054906101000a900473ffffffffffffffffffffffffffffffffffffffff1673ffffffffffffffffffffffffffffffffffffffff1614610631576040517f08c379a0000000000000000000000000000000000000000000000000000000008152600401610628906111ac565b60405180910390fd5b80600260008573ffffffffffffffffffffffffffffffffffffffff1673ffffffffffffffffffffffffffffffffffffffff16815260200190815260200160002060040154600260008673ffffffffffffffffffffffffffffffffffffffff1673ffffffffffffffffffffffffffffffffffffffff168152602001908152602001600020600301546106c291906111fb565b10156106fa576040517f8e1cbe8800000000000000000000000000000000000000000000000000000000815260040160405180910390fd5b6003829080600181540180825580915050600190039060005260206000200160009091909190916101000a81548173ffffffffffffffffffffffffffffffffffffffff021916908373ffffffffffffffffffffffffffffffffffffffff160217905550600260008473ffffffffffffffffffffffffffffffffffffffff1673ffffffffffffffffffffffffffffffffffffffff168152602001908152602001600020600501829080600181540180825580915050600190039060005260206000200160009091909190916101000a81548173ffffffffffffffffffffffffffffffffffffffff021916908373ffffffffffffffffffffffffffffffffffffffff160217905550505050565b60008273ffffffffffffffffffffffffffffffffffffffff168260405161082b90611260565b60006040518083038185875af1925050503d8060008114610868576040519150601f19603f3d011682016040523d82523d6000602084013e61086d565b606091505b50509050806108a8576040517f04cd263400000000000000000000000000000000000000000000000000000000815260040160405180910390fd5b505050565b828054828255906000526020600020908101928215610926579160200282015b828111156109255782518260006101000a81548173ffffffffffffffffffffffffffffffffffffffff021916908373ffffffffffffffffffffffffffffffffffffffff160217905550916020019190600101906108cd565b5b5090506109339190610937565b5090565b5b80821115610950576000816000905550600101610938565b5090565b6000604051905090565b600080fd5b600080fd5b600073ffffffffffffffffffffffffffffffffffffffff82169050919050565b600061099382610968565b9050919050565b6109a381610988565b81146109ae57600080fd5b50565b6000813590506109c08161099a565b92915050565b6000602082840312156109dc576109db61095e565b5b60006109ea848285016109b1565b91505092915050565b6109fc81610988565b82525050565b600081519050919050565b600082825260208201905092915050565b60005b83811015610a3c578082015181840152602081019050610a21565b60008484015250505050565b6000601f19601f8301169050919050565b6000610a6482610a02565b610a6e8185610a0d565b9350610a7e818560208601610a1e565b610a8781610a48565b840191505092915050565b6000819050919050565b610aa581610a92565b82525050565b600060a082019050610ac060008301886109f3565b8181036020830152610ad28187610a59565b90508181036040830152610ae68186610a59565b9050610af56060830185610a9c565b610b026080830184610a9c565b9695505050505050565b610b1581610a92565b8114610b2057600080fd5b50565b600081359050610b3281610b0c565b92915050565b600060208284031215610b4e57610b4d61095e565b5b6000610b5c84828501610b23565b91505092915050565b6000602082019050610b7a60008301846109f3565b92915050565b60006020820190508181036000830152610b9a8184610a59565b905092915050565b600080fd5b600080fd5b7f4e487b7100000000000000000000000000000000000000000000000000000000600052604160045260246000fd5b610be482610a48565b810181811067ffffffffffffffff82111715610c0357610c02610bac565b5b80604052505050565b6000610c16610954565b9050610c228282610bdb565b919050565b600067ffffffffffffffff821115610c4257610c41610bac565b5b610c4b82610a48565b9050602081019050919050565b82818337600083830152505050565b6000610c7a610c7584610c27565b610c0c565b905082815260208101848484011115610c9657610c95610ba7565b5b610ca1848285610c58565b509392505050565b600082601f830112610cbe57610cbd610ba2565b5b8135610cce848260208601610c67565b91505092915050565b60008060008060008060c08789031215610cf457610cf361095e565b5b6000610d0289828a016109b1565b9650506020610d1389828a016109b1565b955050604087013567ffffffffffffffff811115610d3457610d33610963565b5b610d4089828a01610ca9565b945050606087013567ffffffffffffffff811115610d6157610d60610963565b5b610d6d89828a01610ca9565b9350506080610d7e89828a01610b23565b92505060a0610d8f89828a01610b23565b9150509295509295509295565b600080600060608486031215610db557610db461095e565b5b6000610dc3868287016109b1565b9350506020610dd4868287016109b1565b9250506040610de586828701610b23565b9150509250925092565b60008060408385031215610e0657610e0561095e565b5b6000610e14858286016109b1565b9250506020610e2585828601610b23565b9150509250929050565b7f4e487b7100000000000000000000000000000000000000000000000000000000600052602260045260246000fd5b60006002820490506001821680610e7657607f821691505b602082108103610e8957610e88610e2f565b5b50919050565b60006080820190508181036000830152610ea98187610a59565b90508181036020830152610ebd8186610a59565b9050610ecc6040830185610a9c565b610ed96060830184610a9c565b95945050505050565b60008190508160005260206000209050919050565b60006020601f8301049050919050565b600082821b905092915050565b600060088302610f447fffffffffffffffffffffffffffffffffffffffffffffffffffffffffffffffff82610f07565b610f4e8683610f07565b95508019841693508086168417925050509392505050565b6000819050919050565b6000610f8b610f86610f8184610a92565b610f66565b610a92565b9050919050565b6000819050919050565b610fa583610f70565b610fb9610fb182610f92565b848454610f14565b825550505050565b600090565b610fce610fc1565b610fd9818484610f9c565b505050565b5b81811015610ffd57610ff2600082610fc6565b600181019050610fdf565b5050565b601f8211156110425761101381610ee2565b61101c84610ef7565b8101602085101561102b578190505b61103f61103785610ef7565b830182610fde565b50505b505050565b600082821c905092915050565b600061106560001984600802611047565b1980831691505092915050565b600061107e8383611054565b9150826002028217905092915050565b61109782610a02565b67ffffffffffffffff8111156110b0576110af610bac565b5b6110ba8254610e5e565b6110c5828285611001565b600060209050601f8311600181146110f857600084156110e6578287015190505b6110f08582611072565b865550611158565b601f19841661110686610ee2565b60005b8281101561112e57848901518255600182019150602085019450602081019050611109565b8683101561114b5784890151611147601f891682611054565b8355505b6001600288020188555050505b505050505050565b7f4f6e6c7920757365722063616e2072657175657374207061796d656e74000000600082015250565b6000611196601d83610a0d565b91506111a182611160565b602082019050919050565b600060208201905081810360008301526111c581611189565b9050919050565b7f4e487b7100000000000000000000000000000000000000000000000000000000600052601160045260246000fd5b600061120682610a92565b915061121183610a92565b9250828203905081811115611229576112286111cc565b5b92915050565b600081905092915050565b50565b600061124a60008361122f565b91506112558261123a565b600082019050919050565b600061126b8261123d565b915081905091905056fea264697066735822122002142eea29b60b1823df6ad8c4345c744e19960fe6df2ba4161efd28fe5a518e64736f6c63430008110033a26469706673582212202dfb2edaf80518a54191f170148d248bbfcb22d5e87747a3845b27d80eedf86164736f6c63430008110033",
  "immutableReferences": {},
  "source": "//SPDX-License-Identifier: MIT\npragma solidity ^0.8.9;\n\nimport \"./User.sol\";\nimport \"./Hospital.sol\";\nimport \"./Company.sol\";\n\ncontract Factory {\n    struct AccType {\n        string ipfs;\n        address addr;\n        bool valid;\n    }\n    mapping(address => AccType) public userList;\n\n    mapping(address => AccType) public hospitalList;\n\n    mapping(address => AccType) public insuranceCompanyList;\n\n    function checkAccountType(address addr)\n        public\n        view\n        returns (string memory ipfs, address depAddr)\n    {\n        if (\n            !userList[addr].valid &&\n            !hospitalList[addr].valid &&\n            !insuranceCompanyList[addr].valid\n        ) {\n            return (\"\", address(0));\n        } else if (userList[addr].valid) {\n            return (userList[addr].ipfs, userList[addr].addr);\n        } else if (hospitalList[addr].valid) {\n            return (hospitalList[addr].ipfs, hospitalList[addr].addr);\n        } else if (insuranceCompanyList[addr].valid) {\n            return (\n                insuranceCompanyList[addr].ipfs,\n                insuranceCompanyList[addr].addr\n            );\n        }\n    }\n\n    function createUser(string memory ipfs) public {\n        User user = new User(ipfs);\n        userList[msg.sender] = AccType(ipfs, address(user), true);\n    }\n\n    function createHospital(string memory ipfs) public {\n        Hospital hospital = new Hospital(ipfs);\n        hospitalList[msg.sender] = AccType(ipfs, address(hospital), true);\n    }\n\n    function createInsuranceCompany(string memory ipfs) public {\n        Company company = new Company(msg.sender, ipfs);\n        insuranceCompanyList[msg.sender] = AccType(\n            ipfs,\n            address(company),\n            true\n        );\n    }\n}\n",
  "sourcePath": "/Users/rakshith/projects/healocode/contracts/Factory.sol",
  "compiler": {
    "name": "solc",
    "version": "0.8.17+commit.8df45f5f.Emscripten.clang"
  },
  "schemaVersion": "3.4.11",
  "updatedAt": "2023-02-04T17:33:07.121Z",
  "networkType": "ethereum",
  "devdoc": {
    "kind": "dev",
    "methods": {},
    "version": 1
  },
  "userdoc": {
    "kind": "user",
    "methods": {},
    "version": 1
  }
}