{
  "contractName": "Hospital",
  "abi": [
    {
      "inputs": [
        {
          "internalType": "string",
          "name": "bills",
          "type": "string"
        }
      ],
      "stateMutability": "nonpayable",
      "type": "constructor"
    },
    {
      "inputs": [
        {
          "internalType": "address",
          "name": "",
          "type": "address"
        },
        {
          "internalType": "uint256",
          "name": "",
          "type": "uint256"
        }
      ],
      "name": "billList",
      "outputs": [
        {
          "internalType": "address",
          "name": "",
          "type": "address"
        }
      ],
      "stateMutability": "view",
      "type": "function"
    },
    {
      "inputs": [],
      "name": "billsIpfs",
      "outputs": [
        {
          "internalType": "string",
          "name": "",
          "type": "string"
        }
      ],
      "stateMutability": "view",
      "type": "function"
    },
    {
      "inputs": [
        {
          "internalType": "string",
          "name": "_documents",
          "type": "string"
        },
        {
          "internalType": "uint256",
          "name": "_billAmount",
          "type": "uint256"
        },
        {
          "internalType": "address",
          "name": "_userWalletAddress",
          "type": "address"
        },
        {
          "internalType": "string",
          "name": "_policyId",
          "type": "string"
        }
      ],
      "name": "addBillForUser",
      "outputs": [],
      "stateMutability": "nonpayable",
      "type": "function"
    },
    {
      "inputs": [
        {
          "internalType": "address",
          "name": "_billContractAddress",
          "type": "address"
        }
      ],
      "name": "requestWithdraw",
      "outputs": [],
      "stateMutability": "nonpayable",
      "type": "function"
    }
  ],
  "bytecode": "0x60806040523480156200001157600080fd5b5060405162001b5e38038062001b5e8339818101604052810190620000379190620001e3565b80600190816200004891906200047f565b505062000566565b6000604051905090565b600080fd5b600080fd5b600080fd5b600080fd5b6000601f19601f8301169050919050565b7f4e487b7100000000000000000000000000000000000000000000000000000000600052604160045260246000fd5b620000b9826200006e565b810181811067ffffffffffffffff82111715620000db57620000da6200007f565b5b80604052505050565b6000620000f062000050565b9050620000fe8282620000ae565b919050565b600067ffffffffffffffff8211156200012157620001206200007f565b5b6200012c826200006e565b9050602081019050919050565b60005b83811015620001595780820151818401526020810190506200013c565b60008484015250505050565b60006200017c620001768462000103565b620000e4565b9050828152602081018484840111156200019b576200019a62000069565b5b620001a884828562000139565b509392505050565b600082601f830112620001c857620001c762000064565b5b8151620001da84826020860162000165565b91505092915050565b600060208284031215620001fc57620001fb6200005a565b5b600082015167ffffffffffffffff8111156200021d576200021c6200005f565b5b6200022b84828501620001b0565b91505092915050565b600081519050919050565b7f4e487b7100000000000000000000000000000000000000000000000000000000600052602260045260246000fd5b600060028204905060018216806200028757607f821691505b6020821081036200029d576200029c6200023f565b5b50919050565b60008190508160005260206000209050919050565b60006020601f8301049050919050565b600082821b905092915050565b600060088302620003077fffffffffffffffffffffffffffffffffffffffffffffffffffffffffffffffff82620002c8565b620003138683620002c8565b95508019841693508086168417925050509392505050565b6000819050919050565b6000819050919050565b6000620003606200035a62000354846200032b565b62000335565b6200032b565b9050919050565b6000819050919050565b6200037c836200033f565b620003946200038b8262000367565b848454620002d5565b825550505050565b600090565b620003ab6200039c565b620003b881848462000371565b505050565b5b81811015620003e057620003d4600082620003a1565b600181019050620003be565b5050565b601f8211156200042f57620003f981620002a3565b6200040484620002b8565b8101602085101562000414578190505b6200042c6200042385620002b8565b830182620003bd565b50505b505050565b600082821c905092915050565b6000620004546000198460080262000434565b1980831691505092915050565b60006200046f838362000441565b9150826002028217905092915050565b6200048a8262000234565b67ffffffffffffffff811115620004a657620004a56200007f565b5b620004b282546200026e565b620004bf828285620003e4565b600060209050601f831160018114620004f75760008415620004e2578287015190505b620004ee858262000461565b8655506200055e565b601f1984166200050786620002a3565b60005b8281101562000531578489015182556001820191506020850194506020810190506200050a565b868310156200055157848901516200054d601f89168262000441565b8355505b6001600288020188555050505b505050505050565b6115e880620005766000396000f3fe60806040523480156200001157600080fd5b5060043610620000525760003560e01c806344e31c0814620000575780635046992a1462000079578063a35a36e914620000af578063c2a151cf14620000cf575b600080fd5b62000061620000ef565b604051620000709190620003df565b60405180910390f35b620000976004803603810190620000919190620004b7565b62000185565b604051620000a691906200050f565b60405180910390f35b620000cd6004803603810190620000c791906200052c565b620001d4565b005b620000ed6004803603810190620000e79190620006af565b6200024c565b005b60018054620000fe906200078e565b80601f01602080910402602001604051908101604052809291908181526020018280546200012c906200078e565b80156200017d5780601f1062000151576101008083540402835291602001916200017d565b820191906000526020600020905b8154815290600101906020018083116200015f57829003601f168201915b505050505081565b60006020528160005260406000208181548110620001a257600080fd5b906000526020600020016000915091509054906101000a900473ffffffffffffffffffffffffffffffffffffffff1681565b60008190508073ffffffffffffffffffffffffffffffffffffffff166351cff8d9336040518263ffffffff1660e01b81526004016200021491906200050f565b600060405180830381600087803b1580156200022f57600080fd5b505af115801562000244573d6000803e3d6000fd5b505050505050565b60008484338486604051620002619062000337565b62000271959493929190620007d4565b604051809103906000f0801580156200028e573d6000803e3d6000fd5b5090506000808473ffffffffffffffffffffffffffffffffffffffff1673ffffffffffffffffffffffffffffffffffffffff168152602001908152602001600020819080600181540180825580915050600190039060005260206000200160009091909190916101000a81548173ffffffffffffffffffffffffffffffffffffffff021916908373ffffffffffffffffffffffffffffffffffffffff1602179055505050505050565b610d73806200084083390190565b600081519050919050565b600082825260208201905092915050565b60005b838110156200038157808201518184015260208101905062000364565b60008484015250505050565b6000601f19601f8301169050919050565b6000620003ab8262000345565b620003b7818562000350565b9350620003c981856020860162000361565b620003d4816200038d565b840191505092915050565b60006020820190508181036000830152620003fb81846200039e565b905092915050565b6000604051905090565b600080fd5b600080fd5b600073ffffffffffffffffffffffffffffffffffffffff82169050919050565b6000620004448262000417565b9050919050565b620004568162000437565b81146200046257600080fd5b50565b60008135905062000476816200044b565b92915050565b6000819050919050565b62000491816200047c565b81146200049d57600080fd5b50565b600081359050620004b18162000486565b92915050565b60008060408385031215620004d157620004d06200040d565b5b6000620004e18582860162000465565b9250506020620004f485828601620004a0565b9150509250929050565b620005098162000437565b82525050565b6000602082019050620005266000830184620004fe565b92915050565b6000602082840312156200054557620005446200040d565b5b6000620005558482850162000465565b91505092915050565b600080fd5b600080fd5b7f4e487b7100000000000000000000000000000000000000000000000000000000600052604160045260246000fd5b620005a2826200038d565b810181811067ffffffffffffffff82111715620005c457620005c362000568565b5b80604052505050565b6000620005d962000403565b9050620005e7828262000597565b919050565b600067ffffffffffffffff8211156200060a576200060962000568565b5b62000615826200038d565b9050602081019050919050565b82818337600083830152505050565b6000620006486200064284620005ec565b620005cd565b90508281526020810184848401111562000667576200066662000563565b5b6200067484828562000622565b509392505050565b600082601f8301126200069457620006936200055e565b5b8135620006a684826020860162000631565b91505092915050565b60008060008060808587031215620006cc57620006cb6200040d565b5b600085013567ffffffffffffffff811115620006ed57620006ec62000412565b5b620006fb878288016200067c565b94505060206200070e87828801620004a0565b9350506040620007218782880162000465565b925050606085013567ffffffffffffffff81111562000745576200074462000412565b5b62000753878288016200067c565b91505092959194509250565b7f4e487b7100000000000000000000000000000000000000000000000000000000600052602260045260246000fd5b60006002820490506001821680620007a757607f821691505b602082108103620007bd57620007bc6200075f565b5b50919050565b620007ce816200047c565b82525050565b600060a0820190508181036000830152620007f081886200039e565b9050620008016020830187620007c3565b620008106040830186620004fe565b81810360608301526200082481856200039e565b9050620008356080830184620004fe565b969550505050505056fe60806040523480156200001157600080fd5b5060405162000d7338038062000d73833981810160405281019062000037919062000322565b846000908162000048919062000629565b508360018190555082600260006101000a81548173ffffffffffffffffffffffffffffffffffffffff021916908373ffffffffffffffffffffffffffffffffffffffff1602179055508160039081620000a2919062000629565b5080600460006101000a81548173ffffffffffffffffffffffffffffffffffffffff021916908373ffffffffffffffffffffffffffffffffffffffff160217905550505050505062000710565b6000604051905090565b600080fd5b600080fd5b600080fd5b600080fd5b6000601f19601f8301169050919050565b7f4e487b7100000000000000000000000000000000000000000000000000000000600052604160045260246000fd5b62000158826200010d565b810181811067ffffffffffffffff821117156200017a57620001796200011e565b5b80604052505050565b60006200018f620000ef565b90506200019d82826200014d565b919050565b600067ffffffffffffffff821115620001c057620001bf6200011e565b5b620001cb826200010d565b9050602081019050919050565b60005b83811015620001f8578082015181840152602081019050620001db565b60008484015250505050565b60006200021b6200021584620001a2565b62000183565b9050828152602081018484840111156200023a576200023962000108565b5b62000247848285620001d8565b509392505050565b600082601f83011262000267576200026662000103565b5b81516200027984826020860162000204565b91505092915050565b6000819050919050565b620002978162000282565b8114620002a357600080fd5b50565b600081519050620002b7816200028c565b92915050565b600073ffffffffffffffffffffffffffffffffffffffff82169050919050565b6000620002ea82620002bd565b9050919050565b620002fc81620002dd565b81146200030857600080fd5b50565b6000815190506200031c81620002f1565b92915050565b600080600080600060a08688031215620003415762000340620000f9565b5b600086015167ffffffffffffffff811115620003625762000361620000fe565b5b62000370888289016200024f565b95505060206200038388828901620002a6565b945050604062000396888289016200030b565b935050606086015167ffffffffffffffff811115620003ba57620003b9620000fe565b5b620003c8888289016200024f565b9250506080620003db888289016200030b565b9150509295509295909350565b600081519050919050565b7f4e487b7100000000000000000000000000000000000000000000000000000000600052602260045260246000fd5b600060028204905060018216806200043b57607f821691505b602082108103620004515762000450620003f3565b5b50919050565b60008190508160005260206000209050919050565b60006020601f8301049050919050565b600082821b905092915050565b600060088302620004bb7fffffffffffffffffffffffffffffffffffffffffffffffffffffffffffffffff826200047c565b620004c786836200047c565b95508019841693508086168417925050509392505050565b6000819050919050565b60006200050a62000504620004fe8462000282565b620004df565b62000282565b9050919050565b6000819050919050565b6200052683620004e9565b6200053e620005358262000511565b84845462000489565b825550505050565b600090565b6200055562000546565b620005628184846200051b565b505050565b5b818110156200058a576200057e6000826200054b565b60018101905062000568565b5050565b601f821115620005d957620005a38162000457565b620005ae846200046c565b81016020851015620005be578190505b620005d6620005cd856200046c565b83018262000567565b50505b505050565b600082821c905092915050565b6000620005fe60001984600802620005de565b1980831691505092915050565b6000620006198383620005eb565b9150826002028217905092915050565b6200063482620003e8565b67ffffffffffffffff81111562000650576200064f6200011e565b5b6200065c825462000422565b620006698282856200058e565b600060209050601f831160018114620006a157600084156200068c578287015190505b6200069885826200060b565b86555062000708565b601f198416620006b18662000457565b60005b82811015620006db57848901518255600182019150602085019450602081019050620006b4565b86831015620006fb5784890151620006f7601f891682620005eb565b8355505b6001600288020188555050505b505050505050565b61065380620007206000396000f3fe608060405234801561001057600080fd5b50600436106100625760003560e01c80633a1806b41461006757806351cff8d9146100855780635f342441146100a1578063d7a5d985146100bf578063ee89ef3a146100dd578063f239da35146100fb575b600080fd5b61006f610119565b60405161007c9190610467565b60405180910390f35b61009f600480360381019061009a91906104ec565b6101a7565b005b6100a96102f7565b6040516100b69190610528565b60405180910390f35b6100c761031d565b6040516100d4919061055c565b60405180910390f35b6100e5610323565b6040516100f29190610467565b60405180910390f35b6101036103b1565b6040516101109190610528565b60405180910390f35b60008054610126906105a6565b80601f0160208091040260200160405190810160405280929190818152602001828054610152906105a6565b801561019f5780601f106101745761010080835404028352916020019161019f565b820191906000526020600020905b81548152906001019060200180831161018257829003601f168201915b505050505081565b600260009054906101000a900473ffffffffffffffffffffffffffffffffffffffff1673ffffffffffffffffffffffffffffffffffffffff168173ffffffffffffffffffffffffffffffffffffffff161461022e576040517fe0dbd8ee00000000000000000000000000000000000000000000000000000000815260040160405180910390fd5b6000600260009054906101000a900473ffffffffffffffffffffffffffffffffffffffff1673ffffffffffffffffffffffffffffffffffffffff164760405161027690610608565b60006040518083038185875af1925050503d80600081146102b3576040519150601f19603f3d011682016040523d82523d6000602084013e6102b8565b606091505b50509050806102f3576040517f1215784c00000000000000000000000000000000000000000000000000000000815260040160405180910390fd5b5050565b600260009054906101000a900473ffffffffffffffffffffffffffffffffffffffff1681565b60015481565b60038054610330906105a6565b80601f016020809104026020016040519081016040528092919081815260200182805461035c906105a6565b80156103a95780601f1061037e576101008083540402835291602001916103a9565b820191906000526020600020905b81548152906001019060200180831161038c57829003601f168201915b505050505081565b600460009054906101000a900473ffffffffffffffffffffffffffffffffffffffff1681565b600081519050919050565b600082825260208201905092915050565b60005b838110156104115780820151818401526020810190506103f6565b60008484015250505050565b6000601f19601f8301169050919050565b6000610439826103d7565b61044381856103e2565b93506104538185602086016103f3565b61045c8161041d565b840191505092915050565b60006020820190508181036000830152610481818461042e565b905092915050565b600080fd5b600073ffffffffffffffffffffffffffffffffffffffff82169050919050565b60006104b98261048e565b9050919050565b6104c9816104ae565b81146104d457600080fd5b50565b6000813590506104e6816104c0565b92915050565b60006020828403121561050257610501610489565b5b6000610510848285016104d7565b91505092915050565b610522816104ae565b82525050565b600060208201905061053d6000830184610519565b92915050565b6000819050919050565b61055681610543565b82525050565b6000602082019050610571600083018461054d565b92915050565b7f4e487b7100000000000000000000000000000000000000000000000000000000600052602260045260246000fd5b600060028204905060018216806105be57607f821691505b6020821081036105d1576105d0610577565b5b50919050565b600081905092915050565b50565b60006105f26000836105d7565b91506105fd826105e2565b600082019050919050565b6000610613826105e5565b915081905091905056fea26469706673582212200a89b68e67bd60b4e28064a12d9e60b0a8869073b96d7287dccb55d975a8e17264736f6c63430008110033a264697066735822122084e4a9a6dd7e506147938cb8d1f5f03b1b70ce3673aac7cec6e13678b000406764736f6c63430008110033",
  "immutableReferences": {},
  "source": "//SPDX-License-Identifier: MIT\npragma solidity ^0.8.9;\n\nimport \"./User.sol\";\nimport \"./Bill.sol\";\n\ncontract Hospital {\n    mapping(address => address[]) public billList;\n    string public billsIpfs;\n\n    constructor(string memory bills) {\n        billsIpfs = bills;\n    }\n\n    function addBillForUser(\n        string memory _documents,\n        uint256 _billAmount,\n        address _userWalletAddress,\n        string memory _policyId\n    ) public {\n        Bill bill = new Bill(\n            _documents,\n            _billAmount,\n            msg.sender,\n            _policyId,\n            _userWalletAddress\n        );\n        billList[_userWalletAddress].push(address(bill));\n    }\n\n    function requestWithdraw(address _billContractAddress) public {\n        Bill bill = Bill(_billContractAddress);\n        bill.withdraw(msg.sender);\n    }\n}\n",
  "sourcePath": "/Users/rakshith/projects/healocode/contracts/Hospital.sol",
  "compiler": {
    "name": "solc",
    "version": "0.8.17+commit.8df45f5f.Emscripten.clang"
  },
  "schemaVersion": "3.4.11",
  "updatedAt": "2023-02-04T17:31:07.841Z",
  "devdoc": {
    "kind": "dev",
    "methods": {},
    "version": 1
  },
  "userdoc": {
    "kind": "user",
    "methods": {},
    "version": 1
  }
}