{
  "contractName": "Main",
  "abi": [
    {
      "inputs": [],
      "stateMutability": "nonpayable",
      "type": "constructor"
    },
    {
      "inputs": [],
      "name": "factoryAddress",
      "outputs": [
        {
          "internalType": "address",
          "name": "",
          "type": "address"
        }
      ],
      "stateMutability": "view",
      "type": "function"
    },
    {
      "inputs": [],
      "name": "getFactoryAddress",
      "outputs": [
        {
          "internalType": "address",
          "name": "",
          "type": "address"
        }
      ],
      "stateMutability": "view",
      "type": "function"
    }
  ],
  "bytecode": "0x608060405234801561001057600080fd5b5060405161001d9061007e565b604051809103906000f080158015610039573d6000803e3d6000fd5b506000806101000a81548173ffffffffffffffffffffffffffffffffffffffff021916908373ffffffffffffffffffffffffffffffffffffffff16021790555061008b565b615d87806101f283390190565b6101588061009a6000396000f3fe608060405234801561001057600080fd5b50600436106100365760003560e01c8063966dae0e1461003b578063a9c2e36c14610059575b600080fd5b610043610077565b6040516100509190610107565b60405180910390f35b61006161009d565b60405161006e9190610107565b60405180910390f35b600160009054906101000a900473ffffffffffffffffffffffffffffffffffffffff1681565b60008060009054906101000a900473ffffffffffffffffffffffffffffffffffffffff16905090565b600073ffffffffffffffffffffffffffffffffffffffff82169050919050565b60006100f1826100c6565b9050919050565b610101816100e6565b82525050565b600060208201905061011c60008301846100f8565b9291505056fea264697066735822122055314581458238dd0b584356ed0524c48f7555edc8cd78943a82f11865f8c34b64736f6c63430008110033608060405234801561001057600080fd5b50615d67806100206000396000f3fe60806040523480156200001157600080fd5b5060043610620000885760003560e01c80638b50c9d911620000635780638b50c9d91462000105578063b296eec6146200013c578063d3bb895c146200015c578063e61025cd14620001945762000088565b80631b4e7bd2146200008d578063507ffba514620000c557806355dc106614620000e5575b600080fd5b620000ab6004803603810190620000a5919062000ec0565b620001cc565b604051620000bc9392919062000fba565b60405180910390f35b620000e36004803603810190620000dd91906200114f565b620002b3565b005b620001036004803603810190620000fd91906200114f565b620003e8565b005b6200012360048036038101906200011d919062000ec0565b6200051e565b60405162000133929190620011a0565b60405180910390f35b6200015a60048036038101906200015491906200114f565b62000b17565b005b6200017a600480360381019062000174919062000ec0565b62000c4f565b6040516200018b9392919062000fba565b60405180910390f35b620001b26004803603810190620001ac919062000ec0565b62000d36565b604051620001c39392919062000fba565b60405180910390f35b6000602052806000526040600020600091509050806000018054620001f19062001203565b80601f01602080910402602001604051908101604052809291908181526020018280546200021f9062001203565b8015620002705780601f10620002445761010080835404028352916020019162000270565b820191906000526020600020905b8154815290600101906020018083116200025257829003601f168201915b5050505050908060010160009054906101000a900473ffffffffffffffffffffffffffffffffffffffff16908060010160149054906101000a900460ff16905083565b600081604051620002c49062000e1d565b620002d0919062001238565b604051809103906000f080158015620002ed573d6000803e3d6000fd5b50905060405180606001604052808381526020018273ffffffffffffffffffffffffffffffffffffffff168152602001600115158152506000803373ffffffffffffffffffffffffffffffffffffffff1673ffffffffffffffffffffffffffffffffffffffff168152602001908152602001600020600082015181600001908162000379919062001438565b5060208201518160010160006101000a81548173ffffffffffffffffffffffffffffffffffffffff021916908373ffffffffffffffffffffffffffffffffffffffff16021790555060408201518160010160146101000a81548160ff0219169083151502179055509050505050565b600081604051620003f99062000e2b565b62000405919062001238565b604051809103906000f08015801562000422573d6000803e3d6000fd5b50905060405180606001604052808381526020018273ffffffffffffffffffffffffffffffffffffffff16815260200160011515815250600160003373ffffffffffffffffffffffffffffffffffffffff1673ffffffffffffffffffffffffffffffffffffffff1681526020019081526020016000206000820151816000019081620004af919062001438565b5060208201518160010160006101000a81548173ffffffffffffffffffffffffffffffffffffffff021916908373ffffffffffffffffffffffffffffffffffffffff16021790555060408201518160010160146101000a81548160ff0219169083151502179055509050505050565b606060008060008473ffffffffffffffffffffffffffffffffffffffff1673ffffffffffffffffffffffffffffffffffffffff16815260200190815260200160002060010160149054906101000a900460ff16158015620005cc5750600160008473ffffffffffffffffffffffffffffffffffffffff1673ffffffffffffffffffffffffffffffffffffffff16815260200190815260200160002060010160149054906101000a900460ff16155b8015620006265750600260008473ffffffffffffffffffffffffffffffffffffffff1673ffffffffffffffffffffffffffffffffffffffff16815260200190815260200160002060010160149054906101000a900460ff16155b156200064957600060405180602001604052806000815250909150915062000b12565b6000808473ffffffffffffffffffffffffffffffffffffffff1673ffffffffffffffffffffffffffffffffffffffff16815260200190815260200160002060010160149054906101000a900460ff1615620007df576000808473ffffffffffffffffffffffffffffffffffffffff1673ffffffffffffffffffffffffffffffffffffffff1681526020019081526020016000206000016000808573ffffffffffffffffffffffffffffffffffffffff1673ffffffffffffffffffffffffffffffffffffffff16815260200190815260200160002060010160009054906101000a900473ffffffffffffffffffffffffffffffffffffffff168180546200074f9062001203565b80601f01602080910402602001604051908101604052809291908181526020018280546200077d9062001203565b8015620007ce5780601f10620007a257610100808354040283529160200191620007ce565b820191906000526020600020905b815481529060010190602001808311620007b057829003601f168201915b505050505091509150915062000b12565b600160008473ffffffffffffffffffffffffffffffffffffffff1673ffffffffffffffffffffffffffffffffffffffff16815260200190815260200160002060010160149054906101000a900460ff16156200097857600160008473ffffffffffffffffffffffffffffffffffffffff1673ffffffffffffffffffffffffffffffffffffffff168152602001908152602001600020600001600160008573ffffffffffffffffffffffffffffffffffffffff1673ffffffffffffffffffffffffffffffffffffffff16815260200190815260200160002060010160009054906101000a900473ffffffffffffffffffffffffffffffffffffffff16818054620008e89062001203565b80601f0160208091040260200160405190810160405280929190818152602001828054620009169062001203565b8015620009675780601f106200093b5761010080835404028352916020019162000967565b820191906000526020600020905b8154815290600101906020018083116200094957829003601f168201915b505050505091509150915062000b12565b600260008473ffffffffffffffffffffffffffffffffffffffff1673ffffffffffffffffffffffffffffffffffffffff16815260200190815260200160002060010160149054906101000a900460ff161562000b1157600260008473ffffffffffffffffffffffffffffffffffffffff1673ffffffffffffffffffffffffffffffffffffffff168152602001908152602001600020600001600260008573ffffffffffffffffffffffffffffffffffffffff1673ffffffffffffffffffffffffffffffffffffffff16815260200190815260200160002060010160009054906101000a900473ffffffffffffffffffffffffffffffffffffffff1681805462000a819062001203565b80601f016020809104026020016040519081016040528092919081815260200182805462000aaf9062001203565b801562000b005780601f1062000ad45761010080835404028352916020019162000b00565b820191906000526020600020905b81548152906001019060200180831162000ae257829003601f168201915b505050505091509150915062000b12565b5b915091565b6000338260405162000b299062000e39565b62000b369291906200151f565b604051809103906000f08015801562000b53573d6000803e3d6000fd5b50905060405180606001604052808381526020018273ffffffffffffffffffffffffffffffffffffffff16815260200160011515815250600260003373ffffffffffffffffffffffffffffffffffffffff1673ffffffffffffffffffffffffffffffffffffffff168152602001908152602001600020600082015181600001908162000be0919062001438565b5060208201518160010160006101000a81548173ffffffffffffffffffffffffffffffffffffffff021916908373ffffffffffffffffffffffffffffffffffffffff16021790555060408201518160010160146101000a81548160ff0219169083151502179055509050505050565b600260205280600052604060002060009150905080600001805462000c749062001203565b80601f016020809104026020016040519081016040528092919081815260200182805462000ca29062001203565b801562000cf35780601f1062000cc75761010080835404028352916020019162000cf3565b820191906000526020600020905b81548152906001019060200180831162000cd557829003601f168201915b5050505050908060010160009054906101000a900473ffffffffffffffffffffffffffffffffffffffff16908060010160149054906101000a900460ff16905083565b600160205280600052604060002060009150905080600001805462000d5b9062001203565b80601f016020809104026020016040519081016040528092919081815260200182805462000d899062001203565b801562000dda5780601f1062000dae5761010080835404028352916020019162000dda565b820191906000526020600020905b81548152906001019060200180831162000dbc57829003601f168201915b5050505050908060010160009054906101000a900473ffffffffffffffffffffffffffffffffffffffff16908060010160149054906101000a900460ff16905083565b611250806200155483390190565b611aa580620027a483390190565b611ae9806200424983390190565b6000604051905090565b600080fd5b600080fd5b600073ffffffffffffffffffffffffffffffffffffffff82169050919050565b600062000e888262000e5b565b9050919050565b62000e9a8162000e7b565b811462000ea657600080fd5b50565b60008135905062000eba8162000e8f565b92915050565b60006020828403121562000ed95762000ed862000e51565b5b600062000ee98482850162000ea9565b91505092915050565b600081519050919050565b600082825260208201905092915050565b60005b8381101562000f2e57808201518184015260208101905062000f11565b60008484015250505050565b6000601f19601f8301169050919050565b600062000f588262000ef2565b62000f64818562000efd565b935062000f7681856020860162000f0e565b62000f818162000f3a565b840191505092915050565b62000f978162000e7b565b82525050565b60008115159050919050565b62000fb48162000f9d565b82525050565b6000606082019050818103600083015262000fd6818662000f4b565b905062000fe7602083018562000f8c565b62000ff6604083018462000fa9565b949350505050565b600080fd5b600080fd5b7f4e487b7100000000000000000000000000000000000000000000000000000000600052604160045260246000fd5b620010428262000f3a565b810181811067ffffffffffffffff8211171562001064576200106362001008565b5b80604052505050565b60006200107962000e47565b905062001087828262001037565b919050565b600067ffffffffffffffff821115620010aa57620010a962001008565b5b620010b58262000f3a565b9050602081019050919050565b82818337600083830152505050565b6000620010e8620010e2846200108c565b6200106d565b90508281526020810184848401111562001107576200110662001003565b5b62001114848285620010c2565b509392505050565b600082601f83011262001134576200113362000ffe565b5b813562001146848260208601620010d1565b91505092915050565b60006020828403121562001168576200116762000e51565b5b600082013567ffffffffffffffff81111562001189576200118862000e56565b5b62001197848285016200111c565b91505092915050565b60006040820190508181036000830152620011bc818562000f4b565b9050620011cd602083018462000f8c565b9392505050565b7f4e487b7100000000000000000000000000000000000000000000000000000000600052602260045260246000fd5b600060028204905060018216806200121c57607f821691505b602082108103620012325762001231620011d4565b5b50919050565b6000602082019050818103600083015262001254818462000f4b565b905092915050565b60008190508160005260206000209050919050565b60006020601f8301049050919050565b600082821b905092915050565b600060088302620012c07fffffffffffffffffffffffffffffffffffffffffffffffffffffffffffffffff8262001281565b620012cc868362001281565b95508019841693508086168417925050509392505050565b6000819050919050565b6000819050919050565b600062001319620013136200130d84620012e4565b620012ee565b620012e4565b9050919050565b6000819050919050565b6200133583620012f8565b6200134d620013448262001320565b8484546200128e565b825550505050565b600090565b6200136462001355565b620013718184846200132a565b505050565b5b8181101562001399576200138d6000826200135a565b60018101905062001377565b5050565b601f821115620013e857620013b2816200125c565b620013bd8462001271565b81016020851015620013cd578190505b620013e5620013dc8562001271565b83018262001376565b50505b505050565b600082821c905092915050565b60006200140d60001984600802620013ed565b1980831691505092915050565b6000620014288383620013fa565b9150826002028217905092915050565b620014438262000ef2565b67ffffffffffffffff8111156200145f576200145e62001008565b5b6200146b825462001203565b620014788282856200139d565b600060209050601f831160018114620014b057600084156200149b578287015190505b620014a785826200141a565b86555062001517565b601f198416620014c0866200125c565b60005b82811015620014ea57848901518255600182019150602085019450602081019050620014c3565b868310156200150a578489015162001506601f891682620013fa565b8355505b6001600288020188555050505b505050505050565b600060408201905062001536600083018562000f8c565b81810360208301526200154a818462000f4b565b9050939250505056fe60806040523480156200001157600080fd5b5060405162001250380380620012508339818101604052810190620000379190620001e3565b80600090816200004891906200047f565b505062000566565b6000604051905090565b600080fd5b600080fd5b600080fd5b600080fd5b6000601f19601f8301169050919050565b7f4e487b7100000000000000000000000000000000000000000000000000000000600052604160045260246000fd5b620000b9826200006e565b810181811067ffffffffffffffff82111715620000db57620000da6200007f565b5b80604052505050565b6000620000f062000050565b9050620000fe8282620000ae565b919050565b600067ffffffffffffffff8211156200012157620001206200007f565b5b6200012c826200006e565b9050602081019050919050565b60005b83811015620001595780820151818401526020810190506200013c565b60008484015250505050565b60006200017c620001768462000103565b620000e4565b9050828152602081018484840111156200019b576200019a62000069565b5b620001a884828562000139565b509392505050565b600082601f830112620001c857620001c762000064565b5b8151620001da84826020860162000165565b91505092915050565b600060208284031215620001fc57620001fb6200005a565b5b600082015167ffffffffffffffff8111156200021d576200021c6200005f565b5b6200022b84828501620001b0565b91505092915050565b600081519050919050565b7f4e487b7100000000000000000000000000000000000000000000000000000000600052602260045260246000fd5b600060028204905060018216806200028757607f821691505b6020821081036200029d576200029c6200023f565b5b50919050565b60008190508160005260206000209050919050565b60006020601f8301049050919050565b600082821b905092915050565b600060088302620003077fffffffffffffffffffffffffffffffffffffffffffffffffffffffffffffffff82620002c8565b620003138683620002c8565b95508019841693508086168417925050509392505050565b6000819050919050565b6000819050919050565b6000620003606200035a62000354846200032b565b62000335565b6200032b565b9050919050565b6000819050919050565b6200037c836200033f565b620003946200038b8262000367565b848454620002d5565b825550505050565b600090565b620003ab6200039c565b620003b881848462000371565b505050565b5b81811015620003e057620003d4600082620003a1565b600181019050620003be565b5050565b601f8211156200042f57620003f981620002a3565b6200040484620002b8565b8101602085101562000414578190505b6200042c6200042385620002b8565b830182620003bd565b50505b505050565b600082821c905092915050565b6000620004546000198460080262000434565b1980831691505092915050565b60006200046f838362000441565b9150826002028217905092915050565b6200048a8262000234565b67ffffffffffffffff811115620004a657620004a56200007f565b5b620004b282546200026e565b620004bf828285620003e4565b600060209050601f831160018114620004f75760008415620004e2578287015190505b620004ee858262000461565b8655506200055e565b601f1984166200050786620002a3565b60005b8281101562000531578489015182556001820191506020850194506020810190506200050a565b868310156200055157848901516200054d601f89168262000441565b8355505b6001600288020188555050505b505050505050565b610cda80620005766000396000f3fe608060405234801561001057600080fd5b50600436106100575760003560e01c806306a0e5401461005c5780633854c3131461007e578063ab2a7fdb1461009a578063d7959cf9146100b6578063e8314f27146100d4575b600080fd5b6100646100f0565b6040516100759594939291906105da565b60405180910390f35b610098600480360381019061009391906106a7565b610244565b005b6100b460048036038101906100af91906106a7565b6102e2565b005b6100be610393565b6040516100cb91906106e7565b60405180910390f35b6100ee60048036038101906100e9919061083e565b610421565b005b60018060000180546101019061090c565b80601f016020809104026020016040519081016040528092919081815260200182805461012d9061090c565b801561017a5780601f1061014f5761010080835404028352916020019161017a565b820191906000526020600020905b81548152906001019060200180831161015d57829003601f168201915b50505050509080600101805461018f9061090c565b80601f01602080910402602001604051908101604052809291908181526020018280546101bb9061090c565b80156102085780601f106101dd57610100808354040283529160200191610208565b820191906000526020600020905b8154815290600101906020018083116101eb57829003601f168201915b5050505050908060020154908060030154908060040160009054906101000a900473ffffffffffffffffffffffffffffffffffffffff16905085565b6000600160040160009054906101000a900473ffffffffffffffffffffffffffffffffffffffff1690508073ffffffffffffffffffffffffffffffffffffffff16636dd86d043385856040518463ffffffff1660e01b81526004016102ab9392919061093d565b600060405180830381600087803b1580156102c557600080fd5b505af11580156102d9573d6000803e3d6000fd5b50505050505050565b60008273ffffffffffffffffffffffffffffffffffffffff1682604051610308906109a5565b60006040518083038185875af1925050503d8060008114610345576040519150601f19603f3d011682016040523d82523d6000602084013e61034a565b606091505b505090508061038e576040517f08c379a000000000000000000000000000000000000000000000000000000000815260040161038590610a06565b60405180910390fd5b505050565b600080546103a09061090c565b80601f01602080910402602001604051908101604052809291908181526020018280546103cc9061090c565b80156104195780601f106103ee57610100808354040283529160200191610419565b820191906000526020600020905b8154815290600101906020018083116103fc57829003601f168201915b505050505081565b6040518060a001604052808581526020018481526020018381526020018281526020013373ffffffffffffffffffffffffffffffffffffffff16815250600160008201518160000190816104759190610bd2565b50602082015181600101908161048b9190610bd2565b50604082015181600201556060820151816003015560808201518160040160006101000a81548173ffffffffffffffffffffffffffffffffffffffff021916908373ffffffffffffffffffffffffffffffffffffffff16021790555090505050505050565b600081519050919050565b600082825260208201905092915050565b60005b8381101561052a57808201518184015260208101905061050f565b60008484015250505050565b6000601f19601f8301169050919050565b6000610552826104f0565b61055c81856104fb565b935061056c81856020860161050c565b61057581610536565b840191505092915050565b6000819050919050565b61059381610580565b82525050565b600073ffffffffffffffffffffffffffffffffffffffff82169050919050565b60006105c482610599565b9050919050565b6105d4816105b9565b82525050565b600060a08201905081810360008301526105f48188610547565b905081810360208301526106088187610547565b9050610617604083018661058a565b610624606083018561058a565b61063160808301846105cb565b9695505050505050565b6000604051905090565b600080fd5b600080fd5b610658816105b9565b811461066357600080fd5b50565b6000813590506106758161064f565b92915050565b61068481610580565b811461068f57600080fd5b50565b6000813590506106a18161067b565b92915050565b600080604083850312156106be576106bd610645565b5b60006106cc85828601610666565b92505060206106dd85828601610692565b9150509250929050565b600060208201905081810360008301526107018184610547565b905092915050565b600080fd5b600080fd5b7f4e487b7100000000000000000000000000000000000000000000000000000000600052604160045260246000fd5b61074b82610536565b810181811067ffffffffffffffff8211171561076a57610769610713565b5b80604052505050565b600061077d61063b565b90506107898282610742565b919050565b600067ffffffffffffffff8211156107a9576107a8610713565b5b6107b282610536565b9050602081019050919050565b82818337600083830152505050565b60006107e16107dc8461078e565b610773565b9050828152602081018484840111156107fd576107fc61070e565b5b6108088482856107bf565b509392505050565b600082601f83011261082557610824610709565b5b81356108358482602086016107ce565b91505092915050565b6000806000806080858703121561085857610857610645565b5b600085013567ffffffffffffffff8111156108765761087561064a565b5b61088287828801610810565b945050602085013567ffffffffffffffff8111156108a3576108a261064a565b5b6108af87828801610810565b93505060406108c087828801610692565b92505060606108d187828801610692565b91505092959194509250565b7f4e487b7100000000000000000000000000000000000000000000000000000000600052602260045260246000fd5b6000600282049050600182168061092457607f821691505b602082108103610937576109366108dd565b5b50919050565b600060608201905061095260008301866105cb565b61095f60208301856105cb565b61096c604083018461058a565b949350505050565b600081905092915050565b50565b600061098f600083610974565b915061099a8261097f565b600082019050919050565b60006109b082610982565b9150819050919050565b7f5769746864726177206661696c65640000000000000000000000000000000000600082015250565b60006109f0600f836104fb565b91506109fb826109ba565b602082019050919050565b60006020820190508181036000830152610a1f816109e3565b9050919050565b60008190508160005260206000209050919050565b60006020601f8301049050919050565b600082821b905092915050565b600060088302610a887fffffffffffffffffffffffffffffffffffffffffffffffffffffffffffffffff82610a4b565b610a928683610a4b565b95508019841693508086168417925050509392505050565b6000819050919050565b6000610acf610aca610ac584610580565b610aaa565b610580565b9050919050565b6000819050919050565b610ae983610ab4565b610afd610af582610ad6565b848454610a58565b825550505050565b600090565b610b12610b05565b610b1d818484610ae0565b505050565b5b81811015610b4157610b36600082610b0a565b600181019050610b23565b5050565b601f821115610b8657610b5781610a26565b610b6084610a3b565b81016020851015610b6f578190505b610b83610b7b85610a3b565b830182610b22565b50505b505050565b600082821c905092915050565b6000610ba960001984600802610b8b565b1980831691505092915050565b6000610bc28383610b98565b9150826002028217905092915050565b610bdb826104f0565b67ffffffffffffffff811115610bf457610bf3610713565b5b610bfe825461090c565b610c09828285610b45565b600060209050601f831160018114610c3c5760008415610c2a578287015190505b610c348582610bb6565b865550610c9c565b601f198416610c4a86610a26565b60005b82811015610c7257848901518255600182019150602085019450602081019050610c4d565b86831015610c8f5784890151610c8b601f891682610b98565b8355505b6001600288020188555050505b50505050505056fea2646970667358221220c2e5ae7924d20ed2f56c3520665b317af38430b632a008f9e93c2ce99bebb4bb64736f6c6343000811003360806040523480156200001157600080fd5b5060405162001aa538038062001aa58339818101604052810190620000379190620001e3565b80600190816200004891906200047f565b505062000566565b6000604051905090565b600080fd5b600080fd5b600080fd5b600080fd5b6000601f19601f8301169050919050565b7f4e487b7100000000000000000000000000000000000000000000000000000000600052604160045260246000fd5b620000b9826200006e565b810181811067ffffffffffffffff82111715620000db57620000da6200007f565b5b80604052505050565b6000620000f062000050565b9050620000fe8282620000ae565b919050565b600067ffffffffffffffff8211156200012157620001206200007f565b5b6200012c826200006e565b9050602081019050919050565b60005b83811015620001595780820151818401526020810190506200013c565b60008484015250505050565b60006200017c620001768462000103565b620000e4565b9050828152602081018484840111156200019b576200019a62000069565b5b620001a884828562000139565b509392505050565b600082601f830112620001c857620001c762000064565b5b8151620001da84826020860162000165565b91505092915050565b600060208284031215620001fc57620001fb6200005a565b5b600082015167ffffffffffffffff8111156200021d576200021c6200005f565b5b6200022b84828501620001b0565b91505092915050565b600081519050919050565b7f4e487b7100000000000000000000000000000000000000000000000000000000600052602260045260246000fd5b600060028204905060018216806200028757607f821691505b6020821081036200029d576200029c6200023f565b5b50919050565b60008190508160005260206000209050919050565b60006020601f8301049050919050565b600082821b905092915050565b600060088302620003077fffffffffffffffffffffffffffffffffffffffffffffffffffffffffffffffff82620002c8565b620003138683620002c8565b95508019841693508086168417925050509392505050565b6000819050919050565b6000819050919050565b6000620003606200035a62000354846200032b565b62000335565b6200032b565b9050919050565b6000819050919050565b6200037c836200033f565b620003946200038b8262000367565b848454620002d5565b825550505050565b600090565b620003ab6200039c565b620003b881848462000371565b505050565b5b81811015620003e057620003d4600082620003a1565b600181019050620003be565b5050565b601f8211156200042f57620003f981620002a3565b6200040484620002b8565b8101602085101562000414578190505b6200042c6200042385620002b8565b830182620003bd565b50505b505050565b600082821c905092915050565b6000620004546000198460080262000434565b1980831691505092915050565b60006200046f838362000441565b9150826002028217905092915050565b6200048a8262000234565b67ffffffffffffffff811115620004a657620004a56200007f565b5b620004b282546200026e565b620004bf828285620003e4565b600060209050601f831160018114620004f75760008415620004e2578287015190505b620004ee858262000461565b8655506200055e565b601f1984166200050786620002a3565b60005b8281101562000531578489015182556001820191506020850194506020810190506200050a565b868310156200055157848901516200054d601f89168262000441565b8355505b6001600288020188555050505b505050505050565b61152f80620005766000396000f3fe60806040523480156200001157600080fd5b5060043610620000525760003560e01c806344e31c0814620000575780635046992a1462000079578063a35a36e914620000af578063c2a151cf14620000cf575b600080fd5b62000061620000ef565b604051620000709190620003dd565b60405180910390f35b620000976004803603810190620000919190620004b5565b62000185565b604051620000a691906200050d565b60405180910390f35b620000cd6004803603810190620000c791906200052a565b620001d4565b005b620000ed6004803603810190620000e79190620006ad565b6200024c565b005b60018054620000fe906200078c565b80601f01602080910402602001604051908101604052809291908181526020018280546200012c906200078c565b80156200017d5780601f1062000151576101008083540402835291602001916200017d565b820191906000526020600020905b8154815290600101906020018083116200015f57829003601f168201915b505050505081565b60006020528160005260406000208181548110620001a257600080fd5b906000526020600020016000915091509054906101000a900473ffffffffffffffffffffffffffffffffffffffff1681565b60008190508073ffffffffffffffffffffffffffffffffffffffff166351cff8d9336040518263ffffffff1660e01b81526004016200021491906200050d565b600060405180830381600087803b1580156200022f57600080fd5b505af115801562000244573d6000803e3d6000fd5b505050505050565b600084843384604051620002609062000335565b6200026f9493929190620007d2565b604051809103906000f0801580156200028c573d6000803e3d6000fd5b5090506000808473ffffffffffffffffffffffffffffffffffffffff1673ffffffffffffffffffffffffffffffffffffffff168152602001908152602001600020819080600181540180825580915050600190039060005260206000200160009091909190916101000a81548173ffffffffffffffffffffffffffffffffffffffff021916908373ffffffffffffffffffffffffffffffffffffffff1602179055505050505050565b610ccc806200082e83390190565b600081519050919050565b600082825260208201905092915050565b60005b838110156200037f57808201518184015260208101905062000362565b60008484015250505050565b6000601f19601f8301169050919050565b6000620003a98262000343565b620003b581856200034e565b9350620003c78185602086016200035f565b620003d2816200038b565b840191505092915050565b60006020820190508181036000830152620003f981846200039c565b905092915050565b6000604051905090565b600080fd5b600080fd5b600073ffffffffffffffffffffffffffffffffffffffff82169050919050565b6000620004428262000415565b9050919050565b620004548162000435565b81146200046057600080fd5b50565b600081359050620004748162000449565b92915050565b6000819050919050565b6200048f816200047a565b81146200049b57600080fd5b50565b600081359050620004af8162000484565b92915050565b60008060408385031215620004cf57620004ce6200040b565b5b6000620004df8582860162000463565b9250506020620004f2858286016200049e565b9150509250929050565b620005078162000435565b82525050565b6000602082019050620005246000830184620004fc565b92915050565b6000602082840312156200054357620005426200040b565b5b6000620005538482850162000463565b91505092915050565b600080fd5b600080fd5b7f4e487b7100000000000000000000000000000000000000000000000000000000600052604160045260246000fd5b620005a0826200038b565b810181811067ffffffffffffffff82111715620005c257620005c162000566565b5b80604052505050565b6000620005d762000401565b9050620005e5828262000595565b919050565b600067ffffffffffffffff82111562000608576200060762000566565b5b62000613826200038b565b9050602081019050919050565b82818337600083830152505050565b6000620006466200064084620005ea565b620005cb565b90508281526020810184848401111562000665576200066462000561565b5b6200067284828562000620565b509392505050565b600082601f8301126200069257620006916200055c565b5b8135620006a48482602086016200062f565b91505092915050565b60008060008060808587031215620006ca57620006c96200040b565b5b600085013567ffffffffffffffff811115620006eb57620006ea62000410565b5b620006f9878288016200067a565b94505060206200070c878288016200049e565b93505060406200071f8782880162000463565b925050606085013567ffffffffffffffff81111562000743576200074262000410565b5b62000751878288016200067a565b91505092959194509250565b7f4e487b7100000000000000000000000000000000000000000000000000000000600052602260045260246000fd5b60006002820490506001821680620007a557607f821691505b602082108103620007bb57620007ba6200075d565b5b50919050565b620007cc816200047a565b82525050565b60006080820190508181036000830152620007ee81876200039c565b9050620007ff6020830186620007c1565b6200080e6040830185620004fc565b81810360608301526200082281846200039c565b90509594505050505056fe60806040523480156200001157600080fd5b5060405162000ccc38038062000ccc8339818101604052810190620000379190620002e0565b8360009081620000489190620005d1565b508260018190555081600260006101000a81548173ffffffffffffffffffffffffffffffffffffffff021916908373ffffffffffffffffffffffffffffffffffffffff1602179055508060039081620000a29190620005d1565b5050505050620006b8565b6000604051905090565b600080fd5b600080fd5b600080fd5b600080fd5b6000601f19601f8301169050919050565b7f4e487b7100000000000000000000000000000000000000000000000000000000600052604160045260246000fd5b6200011682620000cb565b810181811067ffffffffffffffff82111715620001385762000137620000dc565b5b80604052505050565b60006200014d620000ad565b90506200015b82826200010b565b919050565b600067ffffffffffffffff8211156200017e576200017d620000dc565b5b6200018982620000cb565b9050602081019050919050565b60005b83811015620001b657808201518184015260208101905062000199565b60008484015250505050565b6000620001d9620001d38462000160565b62000141565b905082815260208101848484011115620001f857620001f7620000c6565b5b6200020584828562000196565b509392505050565b600082601f830112620002255762000224620000c1565b5b815162000237848260208601620001c2565b91505092915050565b6000819050919050565b620002558162000240565b81146200026157600080fd5b50565b60008151905062000275816200024a565b92915050565b600073ffffffffffffffffffffffffffffffffffffffff82169050919050565b6000620002a8826200027b565b9050919050565b620002ba816200029b565b8114620002c657600080fd5b50565b600081519050620002da81620002af565b92915050565b60008060008060808587031215620002fd57620002fc620000b7565b5b600085015167ffffffffffffffff8111156200031e576200031d620000bc565b5b6200032c878288016200020d565b94505060206200033f8782880162000264565b93505060406200035287828801620002c9565b925050606085015167ffffffffffffffff811115620003765762000375620000bc565b5b62000384878288016200020d565b91505092959194509250565b600081519050919050565b7f4e487b7100000000000000000000000000000000000000000000000000000000600052602260045260246000fd5b60006002820490506001821680620003e357607f821691505b602082108103620003f957620003f86200039b565b5b50919050565b60008190508160005260206000209050919050565b60006020601f8301049050919050565b600082821b905092915050565b600060088302620004637fffffffffffffffffffffffffffffffffffffffffffffffffffffffffffffffff8262000424565b6200046f868362000424565b95508019841693508086168417925050509392505050565b6000819050919050565b6000620004b2620004ac620004a68462000240565b62000487565b62000240565b9050919050565b6000819050919050565b620004ce8362000491565b620004e6620004dd82620004b9565b84845462000431565b825550505050565b600090565b620004fd620004ee565b6200050a818484620004c3565b505050565b5b81811015620005325762000526600082620004f3565b60018101905062000510565b5050565b601f82111562000581576200054b81620003ff565b620005568462000414565b8101602085101562000566578190505b6200057e620005758562000414565b8301826200050f565b50505b505050565b600082821c905092915050565b6000620005a66000198460080262000586565b1980831691505092915050565b6000620005c1838362000593565b9150826002028217905092915050565b620005dc8262000390565b67ffffffffffffffff811115620005f857620005f7620000dc565b5b620006048254620003ca565b6200061182828562000536565b600060209050601f83116001811462000649576000841562000634578287015190505b620006408582620005b3565b865550620006b0565b601f1984166200065986620003ff565b60005b8281101562000683578489015182556001820191506020850194506020810190506200065c565b86831015620006a357848901516200069f601f89168262000593565b8355505b6001600288020188555050505b505050505050565b61060480620006c86000396000f3fe608060405234801561001057600080fd5b50600436106100575760003560e01c80633a1806b41461005c57806351cff8d91461007a5780635f34244114610096578063d7a5d985146100b4578063ee89ef3a146100d2575b600080fd5b6100646100f0565b6040516100719190610418565b60405180910390f35b610094600480360381019061008f919061049d565b61017e565b005b61009e6102ce565b6040516100ab91906104d9565b60405180910390f35b6100bc6102f4565b6040516100c9919061050d565b60405180910390f35b6100da6102fa565b6040516100e79190610418565b60405180910390f35b600080546100fd90610557565b80601f016020809104026020016040519081016040528092919081815260200182805461012990610557565b80156101765780601f1061014b57610100808354040283529160200191610176565b820191906000526020600020905b81548152906001019060200180831161015957829003601f168201915b505050505081565b600260009054906101000a900473ffffffffffffffffffffffffffffffffffffffff1673ffffffffffffffffffffffffffffffffffffffff168173ffffffffffffffffffffffffffffffffffffffff1614610205576040517fe0dbd8ee00000000000000000000000000000000000000000000000000000000815260040160405180910390fd5b6000600260009054906101000a900473ffffffffffffffffffffffffffffffffffffffff1673ffffffffffffffffffffffffffffffffffffffff164760405161024d906105b9565b60006040518083038185875af1925050503d806000811461028a576040519150601f19603f3d011682016040523d82523d6000602084013e61028f565b606091505b50509050806102ca576040517f1215784c00000000000000000000000000000000000000000000000000000000815260040160405180910390fd5b5050565b600260009054906101000a900473ffffffffffffffffffffffffffffffffffffffff1681565b60015481565b6003805461030790610557565b80601f016020809104026020016040519081016040528092919081815260200182805461033390610557565b80156103805780601f1061035557610100808354040283529160200191610380565b820191906000526020600020905b81548152906001019060200180831161036357829003601f168201915b505050505081565b600081519050919050565b600082825260208201905092915050565b60005b838110156103c25780820151818401526020810190506103a7565b60008484015250505050565b6000601f19601f8301169050919050565b60006103ea82610388565b6103f48185610393565b93506104048185602086016103a4565b61040d816103ce565b840191505092915050565b6000602082019050818103600083015261043281846103df565b905092915050565b600080fd5b600073ffffffffffffffffffffffffffffffffffffffff82169050919050565b600061046a8261043f565b9050919050565b61047a8161045f565b811461048557600080fd5b50565b60008135905061049781610471565b92915050565b6000602082840312156104b3576104b261043a565b5b60006104c184828501610488565b91505092915050565b6104d38161045f565b82525050565b60006020820190506104ee60008301846104ca565b92915050565b6000819050919050565b610507816104f4565b82525050565b600060208201905061052260008301846104fe565b92915050565b7f4e487b7100000000000000000000000000000000000000000000000000000000600052602260045260246000fd5b6000600282049050600182168061056f57607f821691505b60208210810361058257610581610528565b5b50919050565b600081905092915050565b50565b60006105a3600083610588565b91506105ae82610593565b600082019050919050565b60006105c482610596565b915081905091905056fea26469706673582212208c9aec124b59a3d1889e934e5921b4c43b435e06c36d2f44789667c6a1f06b2564736f6c63430008110033a26469706673582212202a9af532a7f8c10a1e0340d1389412c6101ffb2ac6e7bfdf2d3f744c8c54e33964736f6c6343000811003360806040523480156200001157600080fd5b5060405162001ae938038062001ae983398181016040528101906200003791906200028a565b80600090816200004891906200053b565b5081600160006101000a81548173ffffffffffffffffffffffffffffffffffffffff021916908373ffffffffffffffffffffffffffffffffffffffff160217905550505062000622565b6000604051905090565b600080fd5b600080fd5b600073ffffffffffffffffffffffffffffffffffffffff82169050919050565b6000620000d382620000a6565b9050919050565b620000e581620000c6565b8114620000f157600080fd5b50565b6000815190506200010581620000da565b92915050565b600080fd5b600080fd5b6000601f19601f8301169050919050565b7f4e487b7100000000000000000000000000000000000000000000000000000000600052604160045260246000fd5b620001608262000115565b810181811067ffffffffffffffff8211171562000182576200018162000126565b5b80604052505050565b60006200019762000092565b9050620001a5828262000155565b919050565b600067ffffffffffffffff821115620001c857620001c762000126565b5b620001d38262000115565b9050602081019050919050565b60005b8381101562000200578082015181840152602081019050620001e3565b60008484015250505050565b6000620002236200021d84620001aa565b6200018b565b90508281526020810184848401111562000242576200024162000110565b5b6200024f848285620001e0565b509392505050565b600082601f8301126200026f576200026e6200010b565b5b8151620002818482602086016200020c565b91505092915050565b60008060408385031215620002a457620002a36200009c565b5b6000620002b485828601620000f4565b925050602083015167ffffffffffffffff811115620002d857620002d7620000a1565b5b620002e68582860162000257565b9150509250929050565b600081519050919050565b7f4e487b7100000000000000000000000000000000000000000000000000000000600052602260045260246000fd5b600060028204905060018216806200034357607f821691505b602082108103620003595762000358620002fb565b5b50919050565b60008190508160005260206000209050919050565b60006020601f8301049050919050565b600082821b905092915050565b600060088302620003c37fffffffffffffffffffffffffffffffffffffffffffffffffffffffffffffffff8262000384565b620003cf868362000384565b95508019841693508086168417925050509392505050565b6000819050919050565b6000819050919050565b60006200041c620004166200041084620003e7565b620003f1565b620003e7565b9050919050565b6000819050919050565b6200043883620003fb565b62000450620004478262000423565b84845462000391565b825550505050565b600090565b6200046762000458565b620004748184846200042d565b505050565b5b818110156200049c57620004906000826200045d565b6001810190506200047a565b5050565b601f821115620004eb57620004b5816200035f565b620004c08462000374565b81016020851015620004d0578190505b620004e8620004df8562000374565b83018262000479565b50505b505050565b600082821c905092915050565b60006200051060001984600802620004f0565b1980831691505092915050565b60006200052b8383620004fd565b9150826002028217905092915050565b6200054682620002f0565b67ffffffffffffffff81111562000562576200056162000126565b5b6200056e82546200032a565b6200057b828285620004a0565b600060209050601f831160018114620005b357600084156200059e578287015190505b620005aa85826200051d565b8655506200061a565b601f198416620005c3866200035f565b60005b82811015620005ed57848901518255600182019150602085019450602081019050620005c6565b868310156200060d578489015162000609601f891682620004fd565b8355505b6001600288020188555050505b505050505050565b6114b780620006326000396000f3fe608060405234801561001057600080fd5b50600436106100625760003560e01c806305a955af146100675780631e6c45561461009b578063328c9754146100cb57806338c32c4b146100e95780636dd86d04146101055780636df3b9d414610121575b600080fd5b610081600480360381019061007c9190610a68565b61013d565b604051610092959493929190610b4d565b60405180910390f35b6100b560048036038101906100b09190610bda565b6102a3565b6040516100c29190610c07565b60405180910390f35b6100d36102e2565b6040516100e09190610c22565b60405180910390f35b61010360048036038101906100fe9190610d79565b610370565b005b61011f600480360381019061011a9190610e3e565b610561565b005b61013b60048036038101906101369190610e91565b61080e565b005b60026020528060005260406000206000915090508060000160009054906101000a900473ffffffffffffffffffffffffffffffffffffffff169080600101805461018690610f00565b80601f01602080910402602001604051908101604052809291908181526020018280546101b290610f00565b80156101ff5780601f106101d4576101008083540402835291602001916101ff565b820191906000526020600020905b8154815290600101906020018083116101e257829003601f168201915b50505050509080600201805461021490610f00565b80601f016020809104026020016040519081016040528092919081815260200182805461024090610f00565b801561028d5780601f106102625761010080835404028352916020019161028d565b820191906000526020600020905b81548152906001019060200180831161027057829003601f168201915b5050505050908060030154908060040154905085565b600381815481106102b357600080fd5b906000526020600020016000915054906101000a900473ffffffffffffffffffffffffffffffffffffffff1681565b600080546102ef90610f00565b80601f016020809104026020016040519081016040528092919081815260200182805461031b90610f00565b80156103685780601f1061033d57610100808354040283529160200191610368565b820191906000526020600020905b81548152906001019060200180831161034b57829003601f168201915b505050505081565b60008590508073ffffffffffffffffffffffffffffffffffffffff1663e8314f27868686866040518563ffffffff1660e01b81526004016103b49493929190610f31565b600060405180830381600087803b1580156103ce57600080fd5b505af11580156103e2573d6000803e3d6000fd5b505050506040518060c001604052808773ffffffffffffffffffffffffffffffffffffffff168152602001868152602001858152602001848152602001838152602001600067ffffffffffffffff8111156104405761043f610c4e565b5b60405190808252806020026020018201604052801561046e5781602001602082028036833780820191505090505b50815250600260008973ffffffffffffffffffffffffffffffffffffffff1673ffffffffffffffffffffffffffffffffffffffff16815260200190815260200160002060008201518160000160006101000a81548173ffffffffffffffffffffffffffffffffffffffff021916908373ffffffffffffffffffffffffffffffffffffffff160217905550602082015181600101908161050d9190611130565b5060408201518160020190816105239190611130565b50606082015181600301556080820151816004015560a082015181600501908051906020019061055492919061094f565b5090505050505050505050565b3373ffffffffffffffffffffffffffffffffffffffff16600260008573ffffffffffffffffffffffffffffffffffffffff1673ffffffffffffffffffffffffffffffffffffffff16815260200190815260200160002060000160009054906101000a900473ffffffffffffffffffffffffffffffffffffffff1673ffffffffffffffffffffffffffffffffffffffff1614610631576040517f08c379a00000000000000000000000000000000000000000000000000000000081526004016106289061124e565b60405180910390fd5b80600260008573ffffffffffffffffffffffffffffffffffffffff1673ffffffffffffffffffffffffffffffffffffffff16815260200190815260200160002060040154600260008673ffffffffffffffffffffffffffffffffffffffff1673ffffffffffffffffffffffffffffffffffffffff168152602001908152602001600020600301546106c2919061129d565b1015610703576040517f08c379a00000000000000000000000000000000000000000000000000000000081526004016106fa90611343565b60405180910390fd5b6003829080600181540180825580915050600190039060005260206000200160009091909190916101000a81548173ffffffffffffffffffffffffffffffffffffffff021916908373ffffffffffffffffffffffffffffffffffffffff160217905550600260008473ffffffffffffffffffffffffffffffffffffffff1673ffffffffffffffffffffffffffffffffffffffff168152602001908152602001600020600501829080600181540180825580915050600190039060005260206000200160009091909190916101000a81548173ffffffffffffffffffffffffffffffffffffffff021916908373ffffffffffffffffffffffffffffffffffffffff160217905550505050565b600160009054906101000a900473ffffffffffffffffffffffffffffffffffffffff1673ffffffffffffffffffffffffffffffffffffffff163373ffffffffffffffffffffffffffffffffffffffff161461089e576040517f08c379a0000000000000000000000000000000000000000000000000000000008152600401610895906113af565b60405180910390fd5b60008273ffffffffffffffffffffffffffffffffffffffff16826040516108c490611400565b60006040518083038185875af1925050503d8060008114610901576040519150601f19603f3d011682016040523d82523d6000602084013e610906565b606091505b505090508061094a576040517f08c379a000000000000000000000000000000000000000000000000000000000815260040161094190611461565b60405180910390fd5b505050565b8280548282559060005260206000209081019282156109c8579160200282015b828111156109c75782518260006101000a81548173ffffffffffffffffffffffffffffffffffffffff021916908373ffffffffffffffffffffffffffffffffffffffff1602179055509160200191906001019061096f565b5b5090506109d591906109d9565b5090565b5b808211156109f25760008160009055506001016109da565b5090565b6000604051905090565b600080fd5b600080fd5b600073ffffffffffffffffffffffffffffffffffffffff82169050919050565b6000610a3582610a0a565b9050919050565b610a4581610a2a565b8114610a5057600080fd5b50565b600081359050610a6281610a3c565b92915050565b600060208284031215610a7e57610a7d610a00565b5b6000610a8c84828501610a53565b91505092915050565b610a9e81610a2a565b82525050565b600081519050919050565b600082825260208201905092915050565b60005b83811015610ade578082015181840152602081019050610ac3565b60008484015250505050565b6000601f19601f8301169050919050565b6000610b0682610aa4565b610b108185610aaf565b9350610b20818560208601610ac0565b610b2981610aea565b840191505092915050565b6000819050919050565b610b4781610b34565b82525050565b600060a082019050610b626000830188610a95565b8181036020830152610b748187610afb565b90508181036040830152610b888186610afb565b9050610b976060830185610b3e565b610ba46080830184610b3e565b9695505050505050565b610bb781610b34565b8114610bc257600080fd5b50565b600081359050610bd481610bae565b92915050565b600060208284031215610bf057610bef610a00565b5b6000610bfe84828501610bc5565b91505092915050565b6000602082019050610c1c6000830184610a95565b92915050565b60006020820190508181036000830152610c3c8184610afb565b905092915050565b600080fd5b600080fd5b7f4e487b7100000000000000000000000000000000000000000000000000000000600052604160045260246000fd5b610c8682610aea565b810181811067ffffffffffffffff82111715610ca557610ca4610c4e565b5b80604052505050565b6000610cb86109f6565b9050610cc48282610c7d565b919050565b600067ffffffffffffffff821115610ce457610ce3610c4e565b5b610ced82610aea565b9050602081019050919050565b82818337600083830152505050565b6000610d1c610d1784610cc9565b610cae565b905082815260208101848484011115610d3857610d37610c49565b5b610d43848285610cfa565b509392505050565b600082601f830112610d6057610d5f610c44565b5b8135610d70848260208601610d09565b91505092915050565b60008060008060008060c08789031215610d9657610d95610a00565b5b6000610da489828a01610a53565b9650506020610db589828a01610a53565b955050604087013567ffffffffffffffff811115610dd657610dd5610a05565b5b610de289828a01610d4b565b945050606087013567ffffffffffffffff811115610e0357610e02610a05565b5b610e0f89828a01610d4b565b9350506080610e2089828a01610bc5565b92505060a0610e3189828a01610bc5565b9150509295509295509295565b600080600060608486031215610e5757610e56610a00565b5b6000610e6586828701610a53565b9350506020610e7686828701610a53565b9250506040610e8786828701610bc5565b9150509250925092565b60008060408385031215610ea857610ea7610a00565b5b6000610eb685828601610a53565b9250506020610ec785828601610bc5565b9150509250929050565b7f4e487b7100000000000000000000000000000000000000000000000000000000600052602260045260246000fd5b60006002820490506001821680610f1857607f821691505b602082108103610f2b57610f2a610ed1565b5b50919050565b60006080820190508181036000830152610f4b8187610afb565b90508181036020830152610f5f8186610afb565b9050610f6e6040830185610b3e565b610f7b6060830184610b3e565b95945050505050565b60008190508160005260206000209050919050565b60006020601f8301049050919050565b600082821b905092915050565b600060088302610fe67fffffffffffffffffffffffffffffffffffffffffffffffffffffffffffffffff82610fa9565b610ff08683610fa9565b95508019841693508086168417925050509392505050565b6000819050919050565b600061102d61102861102384610b34565b611008565b610b34565b9050919050565b6000819050919050565b61104783611012565b61105b61105382611034565b848454610fb6565b825550505050565b600090565b611070611063565b61107b81848461103e565b505050565b5b8181101561109f57611094600082611068565b600181019050611081565b5050565b601f8211156110e4576110b581610f84565b6110be84610f99565b810160208510156110cd578190505b6110e16110d985610f99565b830182611080565b50505b505050565b600082821c905092915050565b6000611107600019846008026110e9565b1980831691505092915050565b600061112083836110f6565b9150826002028217905092915050565b61113982610aa4565b67ffffffffffffffff81111561115257611151610c4e565b5b61115c8254610f00565b6111678282856110a3565b600060209050601f83116001811461119a5760008415611188578287015190505b6111928582611114565b8655506111fa565b601f1984166111a886610f84565b60005b828110156111d0578489015182556001820191506020850194506020810190506111ab565b868310156111ed57848901516111e9601f8916826110f6565b8355505b6001600288020188555050505b505050505050565b7f4f6e6c7920757365722063616e2072657175657374207061796d656e74000000600082015250565b6000611238601d83610aaf565b915061124382611202565b602082019050919050565b600060208201905081810360008301526112678161122b565b9050919050565b7f4e487b7100000000000000000000000000000000000000000000000000000000600052601160045260246000fd5b60006112a882610b34565b91506112b383610b34565b92508282039050818111156112cb576112ca61126e565b5b92915050565b7f416d6f756e7420746f2062652070616964206973206d6f7265207468616e207460008201527f686520746f74616c20616d6f756e740000000000000000000000000000000000602082015250565b600061132d602f83610aaf565b9150611338826112d1565b604082019050919050565b6000602082019050818103600083015261135c81611320565b9050919050565b7f4f6e6c7920636f6d70616e792063616e207061792062696c6c00000000000000600082015250565b6000611399601983610aaf565b91506113a482611363565b602082019050919050565b600060208201905081810360008301526113c88161138c565b9050919050565b600081905092915050565b50565b60006113ea6000836113cf565b91506113f5826113da565b600082019050919050565b600061140b826113dd565b9150819050919050565b7f5769746864726177206661696c65640000000000000000000000000000000000600082015250565b600061144b600f83610aaf565b915061145682611415565b602082019050919050565b6000602082019050818103600083015261147a8161143e565b905091905056fea2646970667358221220b51ece4776c74bd968607c0b10377ce8ee9935153d93d2e6f551adbd6d9331e464736f6c63430008110033a264697066735822122074884211e0803cad16e415545edc43421b1e9c6f3b7de091c348e6f75e98d1cc64736f6c63430008110033",
  "immutableReferences": {},
  "source": "//SPDX-License-Identifier: MIT\npragma solidity ^0.8.9;\n\nimport \"./Factory.sol\";\n\ncontract Main {\n    Factory factory;\n    address public factoryAddress;\n\n    constructor() {\n        factory = new Factory();\n    }\n\n    function getFactoryAddress() public view returns (address) {\n        return address(factory);\n    }\n}\n",
  "sourcePath": "/Users/rakshith/projects/healocode/contracts/Main.sol",
  "compiler": {
    "name": "solc",
    "version": "0.8.17+commit.8df45f5f.Emscripten.clang"
  },
  "schemaVersion": "3.4.11",
  "updatedAt": "2023-02-04T17:15:53.159Z",
  "devdoc": {
    "kind": "dev",
    "methods": {},
    "version": 1
  },
  "userdoc": {
    "kind": "user",
    "methods": {},
    "version": 1
  }
}