{
  "contractName": "Ride",
  "abi": [
    {
      "inputs": [
        {
          "internalType": "address",
          "name": "_passenger",
          "type": "address"
        },
        {
          "internalType": "uint256",
          "name": "_amt",
          "type": "uint256"
        },
        {
          "internalType": "string",
          "name": "_latDest",
          "type": "string"
        },
        {
          "internalType": "string",
          "name": "_lonDest",
          "type": "string"
        },
        {
          "internalType": "string",
          "name": "_latPick",
          "type": "string"
        },
        {
          "internalType": "string",
          "name": "_lonPick",
          "type": "string"
        }
      ],
      "stateMutability": "nonpayable",
      "type": "constructor"
    },
    {
      "inputs": [],
      "name": "driver",
      "outputs": [
        {
          "internalType": "address payable",
          "name": "",
          "type": "address"
        }
      ],
      "stateMutability": "view",
      "type": "function"
    },
    {
      "inputs": [],
      "name": "passenger",
      "outputs": [
        {
          "internalType": "address",
          "name": "",
          "type": "address"
        }
      ],
      "stateMutability": "view",
      "type": "function"
    },
    {
      "inputs": [],
      "name": "approveRide",
      "outputs": [],
      "stateMutability": "nonpayable",
      "type": "function"
    },
    {
      "inputs": [],
      "name": "driverArrivedDriver",
      "outputs": [],
      "stateMutability": "nonpayable",
      "type": "function"
    },
    {
      "inputs": [],
      "name": "driverArrivedPassenger",
      "outputs": [],
      "stateMutability": "nonpayable",
      "type": "function"
    },
    {
      "inputs": [],
      "name": "payContract",
      "outputs": [],
      "stateMutability": "payable",
      "type": "function"
    },
    {
      "inputs": [],
      "name": "passFinish",
      "outputs": [],
      "stateMutability": "nonpayable",
      "type": "function"
    },
    {
      "inputs": [],
      "name": "driverFinish",
      "outputs": [],
      "stateMutability": "nonpayable",
      "type": "function"
    },
    {
      "inputs": [],
      "name": "payDriver",
      "outputs": [],
      "stateMutability": "payable",
      "type": "function"
    }
  ],
  "bytecode": "0x60806040523480156200001157600080fd5b5060405162000ece38038062000ece8339818101604052810190620000379190620003a9565b856000806101000a81548173ffffffffffffffffffffffffffffffffffffffff021916908373ffffffffffffffffffffffffffffffffffffffff16021790555084600260000181905550836002600101908162000095919062000702565b5082600280019081620000a9919062000702565b508160026004019081620000be919062000702565b508060026004019081620000d3919062000702565b506000600260050160006101000a81548160ff0219169083151502179055506000600260050160026101000a81548160ff0219169083151502179055506000600260050160026101000a81548160ff0219169083151502179055506000600260050160036101000a81548160ff0219169083151502179055506000600260050160056101000a81548160ff021916908315150217905550505050505050620007e9565b6000604051905090565b600080fd5b600080fd5b600073ffffffffffffffffffffffffffffffffffffffff82169050919050565b6000620001b7826200018a565b9050919050565b620001c981620001aa565b8114620001d557600080fd5b50565b600081519050620001e981620001be565b92915050565b6000819050919050565b6200020481620001ef565b81146200021057600080fd5b50565b6000815190506200022481620001f9565b92915050565b600080fd5b600080fd5b6000601f19601f8301169050919050565b7f4e487b7100000000000000000000000000000000000000000000000000000000600052604160045260246000fd5b6200027f8262000234565b810181811067ffffffffffffffff82111715620002a157620002a062000245565b5b80604052505050565b6000620002b662000176565b9050620002c4828262000274565b919050565b600067ffffffffffffffff821115620002e757620002e662000245565b5b620002f28262000234565b9050602081019050919050565b60005b838110156200031f57808201518184015260208101905062000302565b60008484015250505050565b6000620003426200033c84620002c9565b620002aa565b9050828152602081018484840111156200036157620003606200022f565b5b6200036e848285620002ff565b509392505050565b600082601f8301126200038e576200038d6200022a565b5b8151620003a08482602086016200032b565b91505092915050565b60008060008060008060c08789031215620003c957620003c862000180565b5b6000620003d989828a01620001d8565b9650506020620003ec89828a0162000213565b955050604087015167ffffffffffffffff81111562000410576200040f62000185565b5b6200041e89828a0162000376565b945050606087015167ffffffffffffffff81111562000442576200044162000185565b5b6200045089828a0162000376565b935050608087015167ffffffffffffffff81111562000474576200047362000185565b5b6200048289828a0162000376565b92505060a087015167ffffffffffffffff811115620004a657620004a562000185565b5b620004b489828a0162000376565b9150509295509295509295565b600081519050919050565b7f4e487b7100000000000000000000000000000000000000000000000000000000600052602260045260246000fd5b600060028204905060018216806200051457607f821691505b6020821081036200052a5762000529620004cc565b5b50919050565b60008190508160005260206000209050919050565b60006020601f8301049050919050565b600082821b905092915050565b600060088302620005947fffffffffffffffffffffffffffffffffffffffffffffffffffffffffffffffff8262000555565b620005a0868362000555565b95508019841693508086168417925050509392505050565b6000819050919050565b6000620005e3620005dd620005d784620001ef565b620005b8565b620001ef565b9050919050565b6000819050919050565b620005ff83620005c2565b620006176200060e82620005ea565b84845462000562565b825550505050565b600090565b6200062e6200061f565b6200063b818484620005f4565b505050565b5b8181101562000663576200065760008262000624565b60018101905062000641565b5050565b601f821115620006b2576200067c8162000530565b620006878462000545565b8101602085101562000697578190505b620006af620006a68562000545565b83018262000640565b50505b505050565b600082821c905092915050565b6000620006d760001984600802620006b7565b1980831691505092915050565b6000620006f28383620006c4565b9150826002028217905092915050565b6200070d82620004c1565b67ffffffffffffffff81111562000729576200072862000245565b5b620007358254620004fb565b6200074282828562000667565b600060209050601f8311600181146200077a576000841562000765578287015190505b620007718582620006e4565b865550620007e1565b601f1984166200078a8662000530565b60005b82811015620007b4578489015182556001820191506020850194506020810190506200078d565b86831015620007d45784890151620007d0601f891682620006c4565b8355505b6001600288020188555050505b505050505050565b6106d580620007f96000396000f3fe6080604052600436106100865760003560e01c8063c11ae86f11610059578063c11ae86f146100ee578063c8a1534814610119578063df3c435f14610130578063ec29ed1214610147578063ecb0b8621461015e57610086565b80631105f9c41461008b5780632e9fec3f146100a25780636ecc5d62146100b9578063ba2b3906146100e4575b600080fd5b34801561009757600080fd5b506100a0610168565b005b3480156100ae57600080fd5b506100b7610203565b005b3480156100c557600080fd5b506100ce61027b565b6040516100db91906105db565b60405180910390f35b6100ec6102a1565b005b3480156100fa57600080fd5b50610103610375565b6040516101109190610617565b60405180910390f35b34801561012557600080fd5b5061012e610399565b005b34801561013c57600080fd5b50610145610413565b005b34801561015357600080fd5b5061015c6104a7565b005b610166610521565b005b60008054906101000a900473ffffffffffffffffffffffffffffffffffffffff1673ffffffffffffffffffffffffffffffffffffffff163373ffffffffffffffffffffffffffffffffffffffff16036101c057600080fd5b33600160006101000a81548173ffffffffffffffffffffffffffffffffffffffff021916908373ffffffffffffffffffffffffffffffffffffffff160217905550565b60008054906101000a900473ffffffffffffffffffffffffffffffffffffffff1673ffffffffffffffffffffffffffffffffffffffff163373ffffffffffffffffffffffffffffffffffffffff161461025b57600080fd5b6001600260050160016101000a81548160ff021916908315150217905550565b600160009054906101000a900473ffffffffffffffffffffffffffffffffffffffff1681565b60008054906101000a900473ffffffffffffffffffffffffffffffffffffffff1673ffffffffffffffffffffffffffffffffffffffff163373ffffffffffffffffffffffffffffffffffffffff16146102f957600080fd5b600260000154341461030a57600080fd5b600160009054906101000a900473ffffffffffffffffffffffffffffffffffffffff1673ffffffffffffffffffffffffffffffffffffffff166108fc479081150290604051600060405180830381858888f19350505050158015610372573d6000803e3d6000fd5b50565b60008054906101000a900473ffffffffffffffffffffffffffffffffffffffff1681565b600160009054906101000a900473ffffffffffffffffffffffffffffffffffffffff1673ffffffffffffffffffffffffffffffffffffffff163373ffffffffffffffffffffffffffffffffffffffff16146103f357600080fd5b6001600260050160046101000a81548160ff021916908315150217905550565b60008054906101000a900473ffffffffffffffffffffffffffffffffffffffff1673ffffffffffffffffffffffffffffffffffffffff163373ffffffffffffffffffffffffffffffffffffffff161461046b57600080fd5b600260050160059054906101000a900460ff1661048757600080fd5b6001600260050160036101000a81548160ff021916908315150217905550565b600160009054906101000a900473ffffffffffffffffffffffffffffffffffffffff1673ffffffffffffffffffffffffffffffffffffffff163373ffffffffffffffffffffffffffffffffffffffff161461050157600080fd5b6001600260050160026101000a81548160ff021916908315150217905550565b60008054906101000a900473ffffffffffffffffffffffffffffffffffffffff1673ffffffffffffffffffffffffffffffffffffffff163373ffffffffffffffffffffffffffffffffffffffff161461057957600080fd5b620f424060026000015461058d919061066b565b341161059857600080fd5b565b600073ffffffffffffffffffffffffffffffffffffffff82169050919050565b60006105c58261059a565b9050919050565b6105d5816105ba565b82525050565b60006020820190506105f060008301846105cc565b92915050565b60006106018261059a565b9050919050565b610611816105f6565b82525050565b600060208201905061062c6000830184610608565b92915050565b6000819050919050565b7f4e487b7100000000000000000000000000000000000000000000000000000000600052601160045260246000fd5b600061067682610632565b915061068183610632565b92508282039050818111156106995761069861063c565b5b9291505056fea2646970667358221220f03f660d04f81cef0867361fe9870fd7b0ee662ed0321848cd7357dc2caf9a8964736f6c63430008110033",
  "immutableReferences": {},
  "source": "//SPDX-License-Identifier: MIT\npragma solidity ^0.8.9;\n\n\n\n\n\n\n\ncontract Factory {\n    mapping(address => bool) public activeRides;\n    \n    Ride public newRide;\n    \n    // mapping(string=>driver) public activeDrivers;\n    \n    struct driver {\n        // string hash;\n        address payable driver; \n        string lat;\n        string lon;\n    }\n    \n    driver public activeDriver;\n    address public rideAddress;\n    \n    \n    function createRide(uint _amt, string memory _latDest, string memory _lonDest, string memory _latPick, string memory _lonPick ) public returns (address){\n        newRide = new Ride(msg.sender, _amt, _latDest, _lonDest, _latPick, _lonPick);\n        activeRides[address(newRide)] = true;\n        rideAddress = address(newRide);\n        return address(newRide);\n    }\n\n    function factoryAddress() public view returns (address) {\n        return address(this);\n    }\n    \n    \n    \n    \n    \n    \n    function createDriver(string memory _lat, string memory _lon) public {\n        activeDriver.lat= _lat;\n        activeDriver.lon = _lon;\n        activeDriver.driver = payable(msg.sender);\n    }\n    \n    // function getActiveDrivers() public returns (driver memory){\n    //     return activeDriver;\n    // }\n}\n\n\n\ncontract Ride {\n    \n    address public passenger;\n    address payable public driver;\n    \n    struct RideDetails {\n        uint amount;\n        string latDest;\n        string lonDest;\n        string latPick;\n        string lonPick;\n        bool isApproved;\n        bool arrivalConfirmationPassenger;\n        bool arrivalConfirmationDriver;\n        bool passFinished;\n        bool driverFinished;\n        bool paid;\n    }\n    \n    RideDetails ride;\n    \n    constructor(address _passenger, uint _amt, string memory _latDest, string memory _lonDest, string memory _latPick, string memory _lonPick){\n        passenger = _passenger;\n        ride.amount = _amt;\n        ride.latDest = _latDest;\n        ride.lonDest = _lonDest;\n        ride.lonPick = _latPick;\n        ride.lonPick = _lonPick;\n        ride.isApproved = false;\n        ride.arrivalConfirmationDriver=false;\n        ride.arrivalConfirmationDriver = false;\n        ride.passFinished = false;\n        ride.paid = false;\n        \n        \n    }\n    \n    function approveRide() public {\n        require(msg.sender!= passenger);\n        driver = payable(msg.sender);\n    }\n    \n    function driverArrivedDriver() public {\n        require(msg.sender == driver);\n        ride.arrivalConfirmationDriver = true;\n    }\n    \n    function driverArrivedPassenger() public {\n        require(msg.sender == passenger);\n        ride.arrivalConfirmationPassenger = true;\n    }\n    \n    function payContract() public payable {\n        require(msg.sender == passenger);\n        require(msg.value > ride.amount - 1000000 );\n        \n    }\n    function passFinish() public{\n        require(msg.sender == passenger);\n        require(ride.paid);\n        ride.passFinished = true;\n        \n    }\n    function driverFinish() public{\n        require(msg.sender == driver);\n        ride.driverFinished = true;\n        \n    }\n    \n    function payDriver() public payable {\n        require(msg.sender ==passenger);\n        require(msg.value == ride.amount);\n        driver.transfer(address(this).balance);\n    }\n    \n    \n}\n",
  "sourcePath": "/Users/rakshith/projects/healocode/contracts/IngeniusContract.sol",
  "compiler": {
    "name": "solc",
    "version": "0.8.17+commit.8df45f5f.Emscripten.clang"
  },
  "schemaVersion": "3.4.11",
  "updatedAt": "2023-02-04T16:20:48.396Z",
  "devdoc": {
    "kind": "dev",
    "methods": {},
    "version": 1
  },
  "userdoc": {
    "kind": "user",
    "methods": {},
    "version": 1
  }
}