{
  "contractName": "User",
  "abi": [
    {
      "inputs": [
        {
          "internalType": "string",
          "name": "_ipfs",
          "type": "string"
        }
      ],
      "stateMutability": "nonpayable",
      "type": "constructor"
    },
    {
      "inputs": [],
      "name": "User_SendToBillFailed",
      "type": "error"
    },
    {
      "inputs": [],
      "name": "PolicyDetailsStruct",
      "outputs": [
        {
          "internalType": "string",
          "name": "policyId",
          "type": "string"
        },
        {
          "internalType": "string",
          "name": "userPolicyId",
          "type": "string"
        },
        {
          "internalType": "uint256",
          "name": "totalAmount",
          "type": "uint256"
        },
        {
          "internalType": "uint256",
          "name": "claimed",
          "type": "uint256"
        },
        {
          "internalType": "address",
          "name": "insuranceId",
          "type": "address"
        }
      ],
      "stateMutability": "view",
      "type": "function"
    },
    {
      "inputs": [],
      "name": "ipfs",
      "outputs": [
        {
          "internalType": "string",
          "name": "",
          "type": "string"
        }
      ],
      "stateMutability": "view",
      "type": "function"
    },
    {
      "inputs": [
        {
          "internalType": "string",
          "name": "policyId",
          "type": "string"
        },
        {
          "internalType": "string",
          "name": "userPolicyId",
          "type": "string"
        },
        {
          "internalType": "uint256",
          "name": "totalAmount",
          "type": "uint256"
        },
        {
          "internalType": "uint256",
          "name": "claimed",
          "type": "uint256"
        }
      ],
      "name": "addPolicyForUser",
      "outputs": [],
      "stateMutability": "nonpayable",
      "type": "function"
    },
    {
      "inputs": [
        {
          "internalType": "address",
          "name": "billAddress",
          "type": "address"
        },
        {
          "internalType": "uint256",
          "name": "amount",
          "type": "uint256"
        }
      ],
      "name": "requestInsuranceCompanyToPay",
      "outputs": [],
      "stateMutability": "nonpayable",
      "type": "function"
    },
    {
      "inputs": [
        {
          "internalType": "address",
          "name": "_billAddress",
          "type": "address"
        },
        {
          "internalType": "uint256",
          "name": "amount",
          "type": "uint256"
        }
      ],
      "name": "userPayBill",
      "outputs": [],
      "stateMutability": "nonpayable",
      "type": "function"
    }
  ],
  "bytecode": "0x60806040523480156200001157600080fd5b50604051620011db380380620011db8339818101604052810190620000379190620001e3565b80600090816200004891906200047f565b505062000566565b6000604051905090565b600080fd5b600080fd5b600080fd5b600080fd5b6000601f19601f8301169050919050565b7f4e487b7100000000000000000000000000000000000000000000000000000000600052604160045260246000fd5b620000b9826200006e565b810181811067ffffffffffffffff82111715620000db57620000da6200007f565b5b80604052505050565b6000620000f062000050565b9050620000fe8282620000ae565b919050565b600067ffffffffffffffff8211156200012157620001206200007f565b5b6200012c826200006e565b9050602081019050919050565b60005b83811015620001595780820151818401526020810190506200013c565b60008484015250505050565b60006200017c620001768462000103565b620000e4565b9050828152602081018484840111156200019b576200019a62000069565b5b620001a884828562000139565b509392505050565b600082601f830112620001c857620001c762000064565b5b8151620001da84826020860162000165565b91505092915050565b600060208284031215620001fc57620001fb6200005a565b5b600082015167ffffffffffffffff8111156200021d576200021c6200005f565b5b6200022b84828501620001b0565b91505092915050565b600081519050919050565b7f4e487b7100000000000000000000000000000000000000000000000000000000600052602260045260246000fd5b600060028204905060018216806200028757607f821691505b6020821081036200029d576200029c6200023f565b5b50919050565b60008190508160005260206000209050919050565b60006020601f8301049050919050565b600082821b905092915050565b600060088302620003077fffffffffffffffffffffffffffffffffffffffffffffffffffffffffffffffff82620002c8565b620003138683620002c8565b95508019841693508086168417925050509392505050565b6000819050919050565b6000819050919050565b6000620003606200035a62000354846200032b565b62000335565b6200032b565b9050919050565b6000819050919050565b6200037c836200033f565b620003946200038b8262000367565b848454620002d5565b825550505050565b600090565b620003ab6200039c565b620003b881848462000371565b505050565b5b81811015620003e057620003d4600082620003a1565b600181019050620003be565b5050565b601f8211156200042f57620003f981620002a3565b6200040484620002b8565b8101602085101562000414578190505b6200042c6200042385620002b8565b830182620003bd565b50505b505050565b600082821c905092915050565b6000620004546000198460080262000434565b1980831691505092915050565b60006200046f838362000441565b9150826002028217905092915050565b6200048a8262000234565b67ffffffffffffffff811115620004a657620004a56200007f565b5b620004b282546200026e565b620004bf828285620003e4565b600060209050601f831160018114620004f75760008415620004e2578287015190505b620004ee858262000461565b8655506200055e565b601f1984166200050786620002a3565b60005b8281101562000531578489015182556001820191506020850194506020810190506200050a565b868310156200055157848901516200054d601f89168262000441565b8355505b6001600288020188555050505b505050505050565b610c6580620005766000396000f3fe608060405234801561001057600080fd5b50600436106100575760003560e01c806306a0e5401461005c5780633854c3131461007e578063ab2a7fdb1461009a578063d7959cf9146100b6578063e8314f27146100d4575b600080fd5b6100646100f0565b6040516100759594939291906105d1565b60405180910390f35b6100986004803603810190610093919061069e565b610244565b005b6100b460048036038101906100af919061069e565b6102e2565b005b6100be61038a565b6040516100cb91906106de565b60405180910390f35b6100ee60048036038101906100e99190610835565b610418565b005b600180600001805461010190610903565b80601f016020809104026020016040519081016040528092919081815260200182805461012d90610903565b801561017a5780601f1061014f5761010080835404028352916020019161017a565b820191906000526020600020905b81548152906001019060200180831161015d57829003601f168201915b50505050509080600101805461018f90610903565b80601f01602080910402602001604051908101604052809291908181526020018280546101bb90610903565b80156102085780601f106101dd57610100808354040283529160200191610208565b820191906000526020600020905b8154815290600101906020018083116101eb57829003601f168201915b5050505050908060020154908060030154908060040160009054906101000a900473ffffffffffffffffffffffffffffffffffffffff16905085565b6000600160040160009054906101000a900473ffffffffffffffffffffffffffffffffffffffff1690508073ffffffffffffffffffffffffffffffffffffffff16636dd86d043385856040518463ffffffff1660e01b81526004016102ab93929190610934565b600060405180830381600087803b1580156102c557600080fd5b505af11580156102d9573d6000803e3d6000fd5b50505050505050565b60008273ffffffffffffffffffffffffffffffffffffffff16826040516103089061099c565b60006040518083038185875af1925050503d8060008114610345576040519150601f19603f3d011682016040523d82523d6000602084013e61034a565b606091505b5050905080610385576040517f6b34071b00000000000000000000000000000000000000000000000000000000815260040160405180910390fd5b505050565b6000805461039790610903565b80601f01602080910402602001604051908101604052809291908181526020018280546103c390610903565b80156104105780601f106103e557610100808354040283529160200191610410565b820191906000526020600020905b8154815290600101906020018083116103f357829003601f168201915b505050505081565b6040518060a001604052808581526020018481526020018381526020018281526020013373ffffffffffffffffffffffffffffffffffffffff168152506001600082015181600001908161046c9190610b5d565b5060208201518160010190816104829190610b5d565b50604082015181600201556060820151816003015560808201518160040160006101000a81548173ffffffffffffffffffffffffffffffffffffffff021916908373ffffffffffffffffffffffffffffffffffffffff16021790555090505050505050565b600081519050919050565b600082825260208201905092915050565b60005b83811015610521578082015181840152602081019050610506565b60008484015250505050565b6000601f19601f8301169050919050565b6000610549826104e7565b61055381856104f2565b9350610563818560208601610503565b61056c8161052d565b840191505092915050565b6000819050919050565b61058a81610577565b82525050565b600073ffffffffffffffffffffffffffffffffffffffff82169050919050565b60006105bb82610590565b9050919050565b6105cb816105b0565b82525050565b600060a08201905081810360008301526105eb818861053e565b905081810360208301526105ff818761053e565b905061060e6040830186610581565b61061b6060830185610581565b61062860808301846105c2565b9695505050505050565b6000604051905090565b600080fd5b600080fd5b61064f816105b0565b811461065a57600080fd5b50565b60008135905061066c81610646565b92915050565b61067b81610577565b811461068657600080fd5b50565b60008135905061069881610672565b92915050565b600080604083850312156106b5576106b461063c565b5b60006106c38582860161065d565b92505060206106d485828601610689565b9150509250929050565b600060208201905081810360008301526106f8818461053e565b905092915050565b600080fd5b600080fd5b7f4e487b7100000000000000000000000000000000000000000000000000000000600052604160045260246000fd5b6107428261052d565b810181811067ffffffffffffffff821117156107615761076061070a565b5b80604052505050565b6000610774610632565b90506107808282610739565b919050565b600067ffffffffffffffff8211156107a05761079f61070a565b5b6107a98261052d565b9050602081019050919050565b82818337600083830152505050565b60006107d86107d384610785565b61076a565b9050828152602081018484840111156107f4576107f3610705565b5b6107ff8482856107b6565b509392505050565b600082601f83011261081c5761081b610700565b5b813561082c8482602086016107c5565b91505092915050565b6000806000806080858703121561084f5761084e61063c565b5b600085013567ffffffffffffffff81111561086d5761086c610641565b5b61087987828801610807565b945050602085013567ffffffffffffffff81111561089a57610899610641565b5b6108a687828801610807565b93505060406108b787828801610689565b92505060606108c887828801610689565b91505092959194509250565b7f4e487b7100000000000000000000000000000000000000000000000000000000600052602260045260246000fd5b6000600282049050600182168061091b57607f821691505b60208210810361092e5761092d6108d4565b5b50919050565b600060608201905061094960008301866105c2565b61095660208301856105c2565b6109636040830184610581565b949350505050565b600081905092915050565b50565b600061098660008361096b565b915061099182610976565b600082019050919050565b60006109a782610979565b9150819050919050565b60008190508160005260206000209050919050565b60006020601f8301049050919050565b600082821b905092915050565b600060088302610a137fffffffffffffffffffffffffffffffffffffffffffffffffffffffffffffffff826109d6565b610a1d86836109d6565b95508019841693508086168417925050509392505050565b6000819050919050565b6000610a5a610a55610a5084610577565b610a35565b610577565b9050919050565b6000819050919050565b610a7483610a3f565b610a88610a8082610a61565b8484546109e3565b825550505050565b600090565b610a9d610a90565b610aa8818484610a6b565b505050565b5b81811015610acc57610ac1600082610a95565b600181019050610aae565b5050565b601f821115610b1157610ae2816109b1565b610aeb846109c6565b81016020851015610afa578190505b610b0e610b06856109c6565b830182610aad565b50505b505050565b600082821c905092915050565b6000610b3460001984600802610b16565b1980831691505092915050565b6000610b4d8383610b23565b9150826002028217905092915050565b610b66826104e7565b67ffffffffffffffff811115610b7f57610b7e61070a565b5b610b898254610903565b610b94828285610ad0565b600060209050601f831160018114610bc75760008415610bb5578287015190505b610bbf8582610b41565b865550610c27565b601f198416610bd5866109b1565b60005b82811015610bfd57848901518255600182019150602085019450602081019050610bd8565b86831015610c1a5784890151610c16601f891682610b23565b8355505b6001600288020188555050505b50505050505056fea264697066735822122054c0835b80c70e0fb50d5b683ccf69a806ec6f391e2be1250107e44cc761fea164736f6c63430008110033",
  "immutableReferences": {},
  "source": "//SPDX-License-Identifier: MIT\npragma solidity ^0.8.9;\n\nimport \"./Company.sol\";\nerror User_SendToBillFailed();\n\ncontract User {\n    string public ipfs;\n    struct PolicyDetails {\n        string policyId;\n        string userPolicyId;\n        uint256 totalAmount;\n        uint256 claimed;\n        address insuranceId;\n    }\n\n    PolicyDetails public PolicyDetailsStruct;\n\n    constructor(string memory _ipfs) {\n        ipfs = _ipfs;\n    }\n\n    // will be called by insurance company\n    function addPolicyForUser(\n        string memory policyId,\n        string memory userPolicyId,\n        uint256 totalAmount,\n        uint256 claimed\n    ) public {\n        // add policy for user\n        PolicyDetailsStruct = PolicyDetails(\n            policyId,\n            userPolicyId,\n            totalAmount,\n            claimed,\n            msg.sender\n        );\n    }\n\n    function requestInsuranceCompanyToPay(address billAddress, uint256 amount)\n        public\n    {\n        Company insuranceCompany = Company(PolicyDetailsStruct.insuranceId);\n        insuranceCompany.requestedPayment(msg.sender, billAddress, amount);\n    }\n\n    function userPayBill(address _billAddress, uint256 amount) public {\n        (\n            bool callSuccess, /*bytes memory dataReturned*/\n\n        ) = payable(_billAddress).call{value: amount}(\"\");\n        if (!callSuccess) {\n            revert User_SendToBillFailed();\n        }\n    }\n}\n",
  "sourcePath": "/Users/rakshith/projects/healocode/contracts/User.sol",
  "compiler": {
    "name": "solc",
    "version": "0.8.17+commit.8df45f5f.Emscripten.clang"
  },
  "schemaVersion": "3.4.11",
  "updatedAt": "2023-02-04T17:31:07.847Z",
  "devdoc": {
    "kind": "dev",
    "methods": {},
    "version": 1
  },
  "userdoc": {
    "kind": "user",
    "methods": {},
    "version": 1
  }
}